{
  "_format": "hh-sol-artifact-1",
  "contractName": "AlivelandMarketplace",
  "sourceName": "contracts/AlivelandMarketplace.sol",
  "abi": [
    {
      "anonymous": false,
      "inputs": [
        {
          "indexed": false,
          "internalType": "uint8",
          "name": "version",
          "type": "uint8"
        }
      ],
      "name": "Initialized",
      "type": "event"
    },
    {
      "anonymous": false,
      "inputs": [
        {
          "indexed": true,
          "internalType": "address",
          "name": "owner",
          "type": "address"
        },
        {
          "indexed": true,
          "internalType": "address",
          "name": "nft",
          "type": "address"
        },
        {
          "indexed": false,
          "internalType": "uint256",
          "name": "tokenId",
          "type": "uint256"
        }
      ],
      "name": "ItemCanceled",
      "type": "event"
    },
    {
      "anonymous": false,
      "inputs": [
        {
          "indexed": true,
          "internalType": "address",
          "name": "owner",
          "type": "address"
        },
        {
          "indexed": true,
          "internalType": "address",
          "name": "nft",
          "type": "address"
        },
        {
          "indexed": false,
          "internalType": "string",
          "name": "mediaType",
          "type": "string"
        },
        {
          "indexed": false,
          "internalType": "uint256",
          "name": "tokenId",
          "type": "uint256"
        },
        {
          "indexed": false,
          "internalType": "uint256",
          "name": "quantity",
          "type": "uint256"
        },
        {
          "indexed": false,
          "internalType": "address",
          "name": "payToken",
          "type": "address"
        },
        {
          "indexed": false,
          "internalType": "uint256",
          "name": "pricePerItem",
          "type": "uint256"
        },
        {
          "indexed": false,
          "internalType": "uint256",
          "name": "startingTime",
          "type": "uint256"
        }
      ],
      "name": "ItemListed",
      "type": "event"
    },
    {
      "anonymous": false,
      "inputs": [
        {
          "indexed": true,
          "internalType": "address",
          "name": "seller",
          "type": "address"
        },
        {
          "indexed": true,
          "internalType": "address",
          "name": "buyer",
          "type": "address"
        },
        {
          "indexed": true,
          "internalType": "address",
          "name": "nft",
          "type": "address"
        },
        {
          "indexed": false,
          "internalType": "uint256",
          "name": "tokenId",
          "type": "uint256"
        },
        {
          "indexed": false,
          "internalType": "uint256",
          "name": "quantity",
          "type": "uint256"
        },
        {
          "indexed": false,
          "internalType": "address",
          "name": "payToken",
          "type": "address"
        },
        {
          "indexed": false,
          "internalType": "uint256",
          "name": "pricePerItem",
          "type": "uint256"
        }
      ],
      "name": "ItemSold",
      "type": "event"
    },
    {
      "anonymous": false,
      "inputs": [
        {
          "indexed": true,
          "internalType": "address",
          "name": "owner",
          "type": "address"
        },
        {
          "indexed": true,
          "internalType": "address",
          "name": "nft",
          "type": "address"
        },
        {
          "indexed": false,
          "internalType": "uint256",
          "name": "tokenId",
          "type": "uint256"
        },
        {
          "indexed": false,
          "internalType": "address",
          "name": "payToken",
          "type": "address"
        },
        {
          "indexed": false,
          "internalType": "uint256",
          "name": "newPrice",
          "type": "uint256"
        }
      ],
      "name": "ItemUpdated",
      "type": "event"
    },
    {
      "anonymous": false,
      "inputs": [
        {
          "indexed": true,
          "internalType": "address",
          "name": "creator",
          "type": "address"
        },
        {
          "indexed": true,
          "internalType": "address",
          "name": "nft",
          "type": "address"
        },
        {
          "indexed": false,
          "internalType": "uint256",
          "name": "tokenId",
          "type": "uint256"
        }
      ],
      "name": "OfferCanceled",
      "type": "event"
    },
    {
      "anonymous": false,
      "inputs": [
        {
          "indexed": true,
          "internalType": "address",
          "name": "creator",
          "type": "address"
        },
        {
          "indexed": true,
          "internalType": "address",
          "name": "nft",
          "type": "address"
        },
        {
          "indexed": true,
          "internalType": "address",
          "name": "owner",
          "type": "address"
        },
        {
          "indexed": false,
          "internalType": "uint256",
          "name": "tokenId",
          "type": "uint256"
        },
        {
          "indexed": false,
          "internalType": "uint256",
          "name": "quantity",
          "type": "uint256"
        },
        {
          "indexed": false,
          "internalType": "address",
          "name": "payToken",
          "type": "address"
        },
        {
          "indexed": false,
          "internalType": "uint256",
          "name": "pricePerItem",
          "type": "uint256"
        },
        {
          "indexed": false,
          "internalType": "uint256",
          "name": "deadline",
          "type": "uint256"
        }
      ],
      "name": "OfferCreated",
      "type": "event"
    },
    {
      "anonymous": false,
      "inputs": [
        {
          "indexed": true,
          "internalType": "address",
          "name": "previousOwner",
          "type": "address"
        },
        {
          "indexed": true,
          "internalType": "address",
          "name": "newOwner",
          "type": "address"
        }
      ],
      "name": "OwnershipTransferred",
      "type": "event"
    },
    {
      "anonymous": false,
      "inputs": [
        {
          "indexed": false,
          "internalType": "uint16",
          "name": "platformFee",
          "type": "uint16"
        }
      ],
      "name": "UpdatePlatformFee",
      "type": "event"
    },
    {
      "anonymous": false,
      "inputs": [
        {
          "indexed": false,
          "internalType": "address payable",
          "name": "platformFeeRecipient",
          "type": "address"
        }
      ],
      "name": "UpdatePlatformFeeRecipient",
      "type": "event"
    },
    {
      "inputs": [
        {
          "internalType": "address",
          "name": "_nftAddress",
          "type": "address"
        },
        {
          "internalType": "uint256",
          "name": "_tokenId",
          "type": "uint256"
        },
        {
          "internalType": "address",
          "name": "_creator",
          "type": "address"
        }
      ],
      "name": "acceptOffer",
      "outputs": [],
      "stateMutability": "nonpayable",
      "type": "function"
    },
    {
      "inputs": [],
      "name": "addressRegistry",
      "outputs": [
        {
          "internalType": "contract IAlivelandAddressRegistry",
          "name": "",
          "type": "address"
        }
      ],
      "stateMutability": "view",
      "type": "function"
    },
    {
      "inputs": [
        {
          "internalType": "address",
          "name": "_nftAddress",
          "type": "address"
        },
        {
          "internalType": "uint256",
          "name": "_tokenId",
          "type": "uint256"
        },
        {
          "internalType": "address",
          "name": "_payToken",
          "type": "address"
        },
        {
          "internalType": "address",
          "name": "_owner",
          "type": "address"
        }
      ],
      "name": "buyItem",
      "outputs": [],
      "stateMutability": "payable",
      "type": "function"
    },
    {
      "inputs": [
        {
          "internalType": "address",
          "name": "_nftAddress",
          "type": "address"
        },
        {
          "internalType": "uint256",
          "name": "_tokenId",
          "type": "uint256"
        }
      ],
      "name": "cancelListing",
      "outputs": [],
      "stateMutability": "nonpayable",
      "type": "function"
    },
    {
      "inputs": [
        {
          "internalType": "address",
          "name": "_nftAddress",
          "type": "address"
        },
        {
          "internalType": "uint256",
          "name": "_tokenId",
          "type": "uint256"
        }
      ],
      "name": "cancelOffer",
      "outputs": [],
      "stateMutability": "nonpayable",
      "type": "function"
    },
    {
      "inputs": [
        {
          "internalType": "address",
          "name": "_nftAddress",
          "type": "address"
        },
        {
          "internalType": "address",
          "name": "_owner",
          "type": "address"
        },
        {
          "internalType": "uint256",
          "name": "_tokenId",
          "type": "uint256"
        },
        {
          "internalType": "contract IERC20",
          "name": "_payToken",
          "type": "address"
        },
        {
          "internalType": "uint256",
          "name": "_quantity",
          "type": "uint256"
        },
        {
          "internalType": "uint256",
          "name": "_pricePerItem",
          "type": "uint256"
        },
        {
          "internalType": "uint256",
          "name": "_deadline",
          "type": "uint256"
        }
      ],
      "name": "createOffer",
      "outputs": [],
      "stateMutability": "payable",
      "type": "function"
    },
    {
      "inputs": [],
      "name": "feeReceipient",
      "outputs": [
        {
          "internalType": "address payable",
          "name": "",
          "type": "address"
        }
      ],
      "stateMutability": "view",
      "type": "function"
    },
    {
      "inputs": [
        {
          "internalType": "address",
          "name": "_tokenAddr",
          "type": "address"
        }
      ],
      "name": "getPrice",
      "outputs": [
        {
          "internalType": "uint256",
          "name": "",
          "type": "uint256"
        }
      ],
      "stateMutability": "view",
      "type": "function"
    },
    {
      "inputs": [
        {
          "internalType": "address payable",
          "name": "_feeRecipient",
          "type": "address"
        },
        {
          "internalType": "uint16",
          "name": "_platformFee",
          "type": "uint16"
        }
      ],
      "name": "initialize",
      "outputs": [],
      "stateMutability": "nonpayable",
      "type": "function"
    },
    {
      "inputs": [
        {
          "internalType": "address",
          "name": "_nftAddress",
          "type": "address"
        },
        {
          "internalType": "string",
          "name": "_mediaType",
          "type": "string"
        },
        {
          "internalType": "uint256",
          "name": "_tokenId",
          "type": "uint256"
        },
        {
          "internalType": "uint256",
          "name": "_quantity",
          "type": "uint256"
        },
        {
          "internalType": "address",
          "name": "_payToken",
          "type": "address"
        },
        {
          "internalType": "uint256",
          "name": "_pricePerItem",
          "type": "uint256"
        },
        {
          "internalType": "uint256",
          "name": "_startingTime",
          "type": "uint256"
        }
      ],
      "name": "listItem",
      "outputs": [],
      "stateMutability": "nonpayable",
      "type": "function"
    },
    {
      "inputs": [
        {
          "internalType": "address",
          "name": "",
          "type": "address"
        },
        {
          "internalType": "uint256",
          "name": "",
          "type": "uint256"
        },
        {
          "internalType": "address",
          "name": "",
          "type": "address"
        }
      ],
      "name": "listings",
      "outputs": [
        {
          "internalType": "uint256",
          "name": "quantity",
          "type": "uint256"
        },
        {
          "internalType": "contract IERC20",
          "name": "payToken",
          "type": "address"
        },
        {
          "internalType": "uint256",
          "name": "pricePerItem",
          "type": "uint256"
        },
        {
          "internalType": "uint256",
          "name": "startingTime",
          "type": "uint256"
        }
      ],
      "stateMutability": "view",
      "type": "function"
    },
    {
      "inputs": [
        {
          "internalType": "address",
          "name": "",
          "type": "address"
        },
        {
          "internalType": "uint256",
          "name": "",
          "type": "uint256"
        },
        {
          "internalType": "address",
          "name": "",
          "type": "address"
        }
      ],
      "name": "offers",
      "outputs": [
        {
          "internalType": "contract IERC20",
          "name": "payToken",
          "type": "address"
        },
        {
          "internalType": "uint256",
          "name": "quantity",
          "type": "uint256"
        },
        {
          "internalType": "uint256",
          "name": "pricePerItem",
          "type": "uint256"
        },
        {
          "internalType": "uint256",
          "name": "deadline",
          "type": "uint256"
        }
      ],
      "stateMutability": "view",
      "type": "function"
    },
    {
      "inputs": [],
      "name": "owner",
      "outputs": [
        {
          "internalType": "address",
          "name": "",
          "type": "address"
        }
      ],
      "stateMutability": "view",
      "type": "function"
    },
    {
      "inputs": [],
      "name": "platformFee",
      "outputs": [
        {
          "internalType": "uint16",
          "name": "",
          "type": "uint16"
        }
      ],
      "stateMutability": "view",
      "type": "function"
    },
    {
      "inputs": [],
      "name": "renounceOwnership",
      "outputs": [],
      "stateMutability": "nonpayable",
      "type": "function"
    },
    {
      "inputs": [
        {
          "internalType": "address",
          "name": "newOwner",
          "type": "address"
        }
      ],
      "name": "transferOwnership",
      "outputs": [],
      "stateMutability": "nonpayable",
      "type": "function"
    },
    {
      "inputs": [
        {
          "internalType": "address",
          "name": "_registry",
          "type": "address"
        }
      ],
      "name": "updateAddressRegistry",
      "outputs": [],
      "stateMutability": "nonpayable",
      "type": "function"
    },
    {
      "inputs": [
        {
          "internalType": "address",
          "name": "_nftAddress",
          "type": "address"
        },
        {
          "internalType": "uint256",
          "name": "_tokenId",
          "type": "uint256"
        },
        {
          "internalType": "address",
          "name": "_payToken",
          "type": "address"
        },
        {
          "internalType": "uint256",
          "name": "_newPrice",
          "type": "uint256"
        }
      ],
      "name": "updateListing",
      "outputs": [],
      "stateMutability": "nonpayable",
      "type": "function"
    },
    {
      "inputs": [
        {
          "internalType": "uint16",
          "name": "_platformFee",
          "type": "uint16"
        }
      ],
      "name": "updatePlatformFee",
      "outputs": [],
      "stateMutability": "nonpayable",
      "type": "function"
    },
    {
      "inputs": [
        {
          "internalType": "address payable",
          "name": "_platformFeeRecipient",
          "type": "address"
        }
      ],
      "name": "updatePlatformFeeRecipient",
      "outputs": [],
      "stateMutability": "nonpayable",
      "type": "function"
    }
  ],
  "bytecode": "0x60808060405234610016576129d4908161001c8239f35b600080fdfe6040608081526004908136101561001557600080fd5b600091823560e01c908163058a56ac14611c5557816326232a2e14611c325781633317ae41146116ff5781633740ebb3146116d25781633bbb28061461126457816341976e091461123757816368e79e89146111f75781636bd3a64b1461118d578163715018a61461112c57816385f9d34514610c215781638da5cb5b14610bf8578163afb0695214610b95578163b2ddee0614610a50578163d3f494cc146109e5578163e984f2eb146108ce578163f2e2482e146103cf578163f2fde38b1461033d578163f39e69a4146101a657508063f3ad65f41461017e5763f5fe7f71146100ff57600080fd5b3461017a57602036600319011261017a5760207fe57e7c1f36cc83fade34e32351e6eee7eb9da532662b1b5da10c631e8222aca79161013c611d82565b90610145611e82565b6097805462010000600160b01b031916601084901b62010000600160b01b0316179055516001600160a01b039091168152a180f35b5080fd5b503461017a578160031936011261017a57609a5490516001600160a01b039091168152602090f35b9050346103395781600319360112610339576101c0611d82565b60243561ffff811680910361033457845460ff8160081c161593848095610327575b8015610310575b156102b6575060ff1981166001178655836102a5575b506097549162010000600160b01b039060101b169169ffffffffffffffffffff60b01b16171760975561024160ff845460081c1661023c81611f23565b611f23565b61024a33611eda565b82549061026060ff8360081c1661023c81611f23565b600160655561026d578280f35b61ff001916825551600181527f7f26b83ff96e1f2b6a682f133852f6798a09c465da95921460cefb384740249890602090a138808280f35b61ffff1916610101178555386101ff565b608490602087519162461bcd60e51b8352820152602e60248201527f496e697469616c697a61626c653a20636f6e747261637420697320616c72656160448201526d191e481a5b9a5d1a585b1a5e995960921b6064820152fd5b50303b1580156101e95750600160ff8316146101e9565b50600160ff8316106101e2565b600080fd5b8280fd5b90503461033957602036600319011261033957610358611d82565b91610361611e82565b6001600160a01b0383161561037d578361037a84611eda565b80f35b906020608492519162461bcd60e51b8352820152602660248201527f4f776e61626c653a206e6577206f776e657220697320746865207a65726f206160448201526564647265737360d01b6064820152fd5b91905060e0366003190112610339576103e6611d82565b90602480359360018060a01b038086168096036103345760443593606435918083168093036108ca57886084359160a4359560c43597828b169a8b855286602095609987528181208d8252875220336000528552606087600020885161044b81611dae565b8682541681526003600183015492838a84015260028101548c84015201549283910152159081156108bf575b5015610885578d8751908d878386816301ffc9a760e01b948582526380ac58cd60e01b8b8301525afa92831561087b578f9189918495610841575b5084156107c9575b50505050156107ae576110108814610766575b8d838686609a54168a5192838092637d9f6db560e01b82525afa90811561075c579086918391610724575b5016918c836105f8575b50505050428911156105c1575050600387878b8b948f89906105238c6122a5565b81519761052f89611dae565b8c8952898901948b8652838a0196875260608a01978852825260998a52828220908252895220336000528752886000209551166001600160601b0360a01b865416178555516001850155516002840155519101558251968752860152840152606083015260808201527f47d11b6e298656004aeb4da373f3d8f488131778877cb2fd02d802efe1a1383b60a03392a480f35b855162461bcd60e51b81529182018490526012908201527134b73b30b634b21032bc3834b930ba34b7b760711b6044820152606490fd5b895163227c8e0f60e11b81526001600160a01b039092168683019081526020810191909152909260c0918491908290819060400103915afa9182156107185781926106bb575b50159081156106ae575b501561065757388d818c610502565b855162461bcd60e51b8152918201849052602c908201527f63616e6e6f7420706c61636520616e206f666665722069662061756374696f6e60448201526b1034b99033b7b4b7339037b760a11b6064820152608490fd5b6001915015151438610648565b91505060c0813d8211610710575b816106d660c09383611e10565b8101031261070c576106e781611ffe565b506106f3858201611ffe565b5061070560a060608301519201611f83565b903861063e565b8d80fd5b3d91506106c9565b508751903d90823e3d90fd5b809250888092503d8311610755575b61073d8183611e10565b8101031261017a5761074f8691611ffe565b386104f8565b503d610733565b89513d84823e3d90fd5b610770868a6121e7565b3410156104cd57865162461bcd60e51b815280840186905260128184015271696e73756666696369656e742076616c756560701b6044820152606490fd5b865162461bcd60e51b8152806107c5818601611f90565b0390fd5b8b51908152636cdb3d1360e11b88820152929350908290869082905afa91821561083657916107fd575b508e8d87386104ba565b90508581813d831161082f575b6108148183611e10565b8101031261082b5761082590611f83565b386107f3565b8e80fd5b503d61080a565b8951903d90823e3d90fd5b9250935081813d8311610874575b6108598183611e10565b8101031261017a57878f9161086d90611f83565b93386104b2565b503d61084f565b8a513d84823e3d90fd5b865162461bcd60e51b8152808401869052601581840152741bd999995c88185b1c9958591e4818dc99585d1959605a1b6044820152606490fd5b905042101538610477565b8880fd5b50503461017a57608036600319011261017a576108e9611d82565b602435906108f5611d98565b92606435916109026120ce565b60018060a01b039483600287841697888a5260209360988552868b20898c528552868b2033600052855261096787600020885161093e81611dae565b60606003835493848452876001820154168b850152888101548d85015201549101521515612090565b898b5260988552868b20898c528552868b2033600052855261099287600020968754908b3391612430565b169360018101856001600160601b0360a01b825416179055015582519485528401528201527f60a11f1619b1716bc2857bf610d4bc631336e14d197025fd5875c1aca1ac7cbd60603392a3600160655580f35b50503461017a5790816080926109fa36611e4e565b92909460018060a01b039586809416825260996020528282209082526020522091166000526020528060002091825416916001810154916003600283015492015492815194855260208501528301526060820152f35b50503461017a578060031936011261017a57610a6a611d82565b7f9ba1a3cb55ce8d63d072a886f94d2a744f50cddf82128e897d0661f5ec62315860243591610a976120ce565b60018060a01b0393610b4f8583169586885260209360988552838920878a528552838920336000528552610afd846000208551610ad381611dae565b60606003835493848452876001820154168b85015260028101548a85015201549101521515612090565b87895260988552838920878a5285528389203360005285528360002060606003865192610b2984611dae565b805495868552600182015416898501526002810154888501520154910152863391612430565b848652609882528086208487528252808620336000528252610b868160002060036000918281558260018201558260028201550155565b519283523392a3600160655580f35b90503461033957602036600319011261033957359061ffff8216809203610334577fcabead39256298cdf7d1228eee68b47bc54a2192283d8d93574da08d2d7ac30391602091610be3611e82565b8161ffff19609754161760975551908152a180f35b50503461017a578160031936011261017a5760335490516001600160a01b039091168152602090f35b8383608036600319011261017a57610c37611d82565b60243590610c43611d98565b6001600160a01b0395606435878116949290919085830361033457610c666120ce565b8885169283895260209560988752888a20868b528752888a20886000528752886000208951610c9481611dae565b8154918282528d6001820154168a83015260028101548c8301526003015490606001521515610cc290612090565b848a5260988752888a20868b528752888a2088600052875288600020908b83888c5194610cee86611dae565b8054938487526001820154168c8701528d6002820154908701526003015494606001948552610d1c93612430565b5142106110f6578990848a5260988752888a20868b528752888a2088600052875286610d8d8a610d8481600020956003835197610d5889611dae565b805489528260018201541680978a01526002810154948901948552015460608801528716809414612124565b518451906121e7565b9b8c6110106103e8610da76097549361ffff8516906121e7565b049314611069575b90610dc09160101c163383876128e6565b610dca818d6121da565b8a519063152a902d60e11b8252888783015260248201528a816044818a5afa90811561105f57610e17610e1d938f92938f8f958896829361102d575b505081611011575b505033926121da565b866128e6565b88516301ffc9a760e01b81526380ac58cd60e01b858201528781602481895afa908115611007578b91610fce575b5015610f6057843b15610f5c578851632142170760e11b81526001600160a01b03909116848201908152336020820152604081018790528a9082908190606001038183895af18015610f5257908a91610f3e575b50505b51918215610f2957508651848152602081018390526001600160a01b03919091166040820152970460608801529495610f21959081903390869060008051602061297f83398151915290608090a48652609882528386209086528152828520916000525260002060036000918281558260018201558260028201550155565b600160655580f35b601290634e487b7160e01b6000525260246000fd5b610f4790611de0565b6108ca57888b610e9f565b89513d8c823e3d90fd5b8980fd5b8151908951610f6e81611df4565b8b8152863b15610fca578a51637921219560e11b8152928c9284928392610f9b928c9033908c8701612181565b038183895af18015610f5257908a91610fb6575b5050610ea2565b610fbf90611de0565b6108ca57888b610faf565b8b80fd5b90508781813d8311611000575b610fe58183611e10565b81010312610ffc57610ff690611f83565b8c610e4b565b8a80fd5b503d610fdb565b8a513d8d823e3d90fd5b916110216110269333848d6128e6565b6121b7565b3880610e0e565b611050935080919250903d10611058575b6110488183611e10565b810190612164565b908f80610e06565b503d61103e565b8b513d8e823e3d90fd5b333134116110bc578d341015610daf578b5162461bcd60e51b81528088018b9052601c60248201527f706c656173652073656e642074686520657861637420616d6f756e74000000006044820152606490fd5b8b5162461bcd60e51b81528088018b90526014602482015273696e73756666696369656e742062616c616e636560601b6044820152606490fd5b875162461bcd60e51b8152808401879052601060248201526f6974656d206e6f742062757961626c6560801b6044820152606490fd5b833461118a578060031936011261118a57611145611e82565b603380546001600160a01b031981169091556000906001600160a01b03167f8be0079c531659141344cd1fd0a4f28419497f9722a3daafe3b4186f6b6457e08280a380f35b80fd5b50503461017a5790816080926111a236611e4e565b92909460018060a01b0395868094168252609860205282822090825260205220911660005260205280600020805492600182015416916003600283015492015492815194855260208501528301526060820152f35b833461118a57602036600319011261118a57611211611d82565b611219611e82565b60018060a01b03166001600160601b0360a01b609a541617609a5580f35b50503461017a57602036600319011261017a5760209061125d611258611d82565b612211565b9051908152f35b83833461017a5761127436611e4e565b906112809592956120ce565b60018060a01b03808716908187526020936099855286882084895285528688209582821696878a5286526060888a2089516112ba81611dae565b8582541681526003600183015492838b84015260028101548d84015201549283910152151590816116c8575b50156116855783895260998652878920858a528652878920878a528652878920998689519b6113148d611dae565b858154168d528c600182015492839101528c8b60028301549101526003015460608d015286339061134493612430565b878a0151868b0151611355916121e7565b836097548c858361ffff841661136b90876121e7565b6103e8900494859351169360101c1691611384936128e6565b61138e81836121da565b8a519063152a902d60e11b8252888583015260248201528a8188815a91604492fa90811561105f576113ea9392878f92938f8f958a968293611663575b505081611645575b50506113e4919251169133946121da565b906128e6565b87516301ffc9a760e01b81526380ac58cd60e01b828201528681602481885afa908115610f52578a91611610575b5015611572579088999891843b15610339578851632142170760e11b8152339181019182526001600160a01b03909216602082015260408101869052829082908190606001038183885af1801561156857611550575b505084829160008051602061297f833981519152610f21995b808801518151918b01518b5189815260208101929092526001600160a01b039490921693909316604084015260608301523391608090a480847fc6e24dcedb16cc237925b586889d0a38102c719734d6cc56acb89b013099b3a7858851868152a380875260988352848720828852835284872033600052835261151f8560002060036000918281558260018201558260028201550155565b8652609982528386209086528152828520916000525260002060036000918281558260018201558260028201550155565b61155990611de0565b61156457878961146e565b8780fd5b88513d84823e3d90fd5b858a015188519061158282611df4565b8a8252853b15610ffc57916115af8794928c948c519687958695637921219560e11b875233908701612181565b038183875af18015611606576115dd575b5084829160008051602061297f833981519152610f21999a611487565b829160008051602061297f833981519152610f21996115fc8994611de0565b99505091506115c0565b87513d8a823e3d90fd5b90508681813d831161163e575b6116278183611e10565b81010312610f5c5761163890611f83565b8b611418565b503d61161d565b906113e49361102161165c938884878a51166128e6565b91386113d3565b61167d935080919250903d10611058576110488183611e10565b908f806113cb565b875162461bcd60e51b8152908101869052601b60248201527f6f66666572206e6f7420657869737473206f72206578706972656400000000006044820152606490fd5b905042108b6112e6565b50503461017a578160031936011261017a57609754905160109190911c6001600160a01b03168152602090f35b9050823461118a5760e036600319011261118a5761171b611d82565b60249081359067ffffffffffffffff8211611c2e5736602383011215611c2e57818501359161174983611e32565b9261175688519485611e10565b80845236858284010111611c2a5784918187926020978893018388013785010152608435966001600160a01b03808916916064359160443590848c03610f5c57899a9b60a435968a858460c4359b169d8e8152609883528181208782528352818120338252835220606060038851926117ce84611dae565b805494858552886001830154169085015260028101548a8501520154910152611bf8578d818c8e8851928380926301ffc9a760e01b968783526380ac58cd60e01b908301525afa908115611bec578f91611bb7575b5015611a4c57509c8c9d8b8d8751928380926331a9108f60e11b825289878301525afa908115611a4057908c918f91611a01575b509161186a611894938633911614612012565b865163e985e9c560e01b8152339181019182523060208301529283918f9183918291604090910190565b03915afa9081156119f757918d918c9d9e938f9d959491611980575b509b600393878c947f6fb5d483a924a6fe8326a2cdb91ac74424c23924b48a96c21436d0d75670395a9f8d956118e86118ed92611fbe565b6122a5565b8151976118f989611dae565b8b8952808901948d8652838a0196875260608a019788528252609881528282208a8352815282822090338352522095518655600186019151166001600160601b0360a01b8254161790555160028401555191015561196182519760c0895260c0890190612050565b988701528501526060840152608083015260a08201528033930390a380f35b9c505090928b813d83116119f0575b6119998183611e10565b8101031261033957878d600393878f967f6fb5d483a924a6fe8326a2cdb91ac74424c23924b48a96c21436d0d75670395a9f8e966118e86119dc6118ed93611f83565b969f5050959d9e5050949c9e5050936118b0565b503d61198f565b85513d8f823e3d90fd5b82819392503d8311611a39575b611a188183611e10565b8101031261070c576118949161186a611a318e93611ffe565b919350611857565b503d611a0e565b8e8751903d90823e3d90fd5b8b8f838f93895194859384928352636cdb3d1360e11b908301525afa908115611a40578e91611b82575b5015611b6957611ab38b8f8e87918951809581948293627eeac760e11b84523390840160209093929193604081019460018060a01b031681520152565b03915afa908115611a40579087918f91611b38575b5010611aff5750835163e985e9c560e01b8152339d81019d8e523060208f01529b9c8d9c908b9082908e9082908190604001611894565b8d60156064928d88519362461bcd60e51b8552840152820152746d75737420686f6c6420656e6f756768206e66747360581b6044820152fd5b8092508d8092503d8311611b62575b611b518183611e10565b8101031261070c5786905138611ac8565b503d611b47565b6107c58e865191829162461bcd60e51b83528201611f90565b90508b81813d8311611bb0575b611b998183611e10565b8101031261070c57611baa90611f83565b8f611a76565b503d611b8f565b90508c81813d8311611be5575b611bce8183611e10565b8101031261082b57611bdf90611f83565b38611823565b503d611bc4565b8f8851903d90823e3d90fd5b8d600e6064928d88519362461bcd60e51b85528401528201526d185b1c9958591e481b1a5cdd195960921b6044820152fd5b8580fd5b8380fd5b50503461017a578160031936011261017a5760209061ffff609754169051908152f35b83833461017a578060031936011261017a57611c6f611d82565b926024359060018060a01b0380951692838552602091609983528186208487528352818620338752835281862096600288015490600189015492611cb384846121e7565b15611d4857507fc6e24dcedb16cc237925b586889d0a38102c719734d6cc56acb89b013099b3a79596979854166110108114611d2c575b5050508486526099825280862084875282528086203387528252611d2281872060036000918281558260018201558260028201550155565b519283523392a380f35b611d3a611d409333936121e7565b906126b0565b868080611cea565b845162461bcd60e51b8152908101869052601460248201527313d999995c88191bd95cc81b9bdd08195e1a5cdd60621b6044820152606490fd5b600435906001600160a01b038216820361033457565b604435906001600160a01b038216820361033457565b6080810190811067ffffffffffffffff821117611dca57604052565b634e487b7160e01b600052604160045260246000fd5b67ffffffffffffffff8111611dca57604052565b6020810190811067ffffffffffffffff821117611dca57604052565b90601f8019910116810190811067ffffffffffffffff821117611dca57604052565b67ffffffffffffffff8111611dca57601f01601f191660200190565b6060906003190112610334576001600160a01b03600435818116810361033457916024359160443590811681036103345790565b6033546001600160a01b03163303611e9657565b606460405162461bcd60e51b815260206004820152602060248201527f4f776e61626c653a2063616c6c6572206973206e6f7420746865206f776e65726044820152fd5b603380546001600160a01b039283166001600160a01b0319821681179092559091167f8be0079c531659141344cd1fd0a4f28419497f9722a3daafe3b4186f6b6457e0600080a3565b15611f2a57565b60405162461bcd60e51b815260206004820152602b60248201527f496e697469616c697a61626c653a20636f6e7472616374206973206e6f74206960448201526a6e697469616c697a696e6760a81b6064820152608490fd5b5190811515820361033457565b606090602081526013602082015272696e76616c6964206e6674206164647265737360681b60408201520190565b15611fc557565b60405162461bcd60e51b81526020600482015260116024820152701a5d195b481b9bdd08185c1c1c9bdd9959607a1b6044820152606490fd5b51906001600160a01b038216820361033457565b1561201957565b60405162461bcd60e51b815260206004820152600f60248201526e6e6f74206f776e696e67206974656d60881b6044820152606490fd5b919082519283825260005b84811061207c575050826000602080949584010152601f8019910116010190565b60208183018101518483018201520161205b565b1561209757565b60405162461bcd60e51b815260206004820152600f60248201526e6e6f74206c6973746564206974656d60881b6044820152606490fd5b6002606554146120df576002606555565b60405162461bcd60e51b815260206004820152601f60248201527f5265656e7472616e637947756172643a207265656e7472616e742063616c6c006044820152606490fd5b1561212b57565b60405162461bcd60e51b815260206004820152601160248201527034b73b30b634b2103830bc903a37b5b2b760791b6044820152606490fd5b919082604091031261033457602061217b83611ffe565b92015190565b91926121b495949160a094600180871b038092168552166020840152604083015260608201528160808201520190612050565b90565b919082018092116121c457565b634e487b7160e01b600052601160045260246000fd5b919082039182116121c457565b818102929181159184041417156121c457565b519069ffffffffffffffffffff8216820361033457565b6001600160a01b0316801561229f5760a060049160405192838092633fabe5a360e21b82525afa9081156122935760009161224a575090565b9060a0823d821161228b575b8161226360a09383611e10565b8101031261118a5750612275816121fa565b506122876080602083015192016121fa565b5090565b3d9150612256565b6040513d6000823e3d90fd5b50600090565b609a5460408051639d23c4c760e01b8082526001600160a01b0393841694909360209290919083816004818a5afa908115612425579083916000916123ee575b501615159485612301575b50505050506122ff9150612124565b565b8495506004849594929394518098819382525afa9485156123e3576000956123a6575b5083516398afdfe360e01b8152908216600482015293829185916024918391165afa91821561239c5750600091612366575b506122ff915038808080806122f0565b82813d8311612395575b61237a8183611e10565b8101031261118a575061238f6122ff91611f83565b38612356565b503d612370565b513d6000823e3d90fd5b90948382813d83116123dc575b6123bd8183611e10565b8101031261118a57509060246123d38493611ffe565b95919250612324565b503d6123b3565b84513d6000823e3d90fd5b91508482813d831161241e575b6124058183611e10565b8101031261118a57506124188391611ffe565b386122e5565b503d6123fb565b85513d6000823e3d90fd5b604080516301ffc9a760e01b8082526380ac58cd60e01b600483015294969591946001600160a01b03949385169360209390929091908481602481895afa9081156125fc57600091612607575b50156124ff575050819060248651809581936331a9108f60e11b835260048301525afa93841561239c57506000936124c1575b5050806122ff939416911614612012565b8181969492963d83116124f8575b6124d98183611e10565b8101031261118a5750806124f06122ff9495611ffe565b9294936124b0565b503d6124cf565b909580989394955051908152636cdb3d1360e11b60048201528381602481885afa9081156125fc576000916125c7575b50156125af578651627eeac760e11b81526001600160a01b039290921660048301526024820152918190839060449082905afa94851561239c5750600094612580575b50506122ff91921015612012565b81813d83116125a8575b6125948183611e10565b81010312611c2e575192506122ff38612572565b503d61258a565b865162461bcd60e51b8152806107c560048201611f90565b908482813d83116125f5575b6125dd8183611e10565b8101031261118a57506125ef90611f83565b3861252f565b503d6125d3565b88513d6000823e3d90fd5b908582813d8311612635575b61261d8183611e10565b8101031261118a575061262f90611f83565b3861247d565b503d612613565b3d15612667573d9061264d82611e32565b9161265b6040519384611e10565b82523d6000602084013e565b606090565b1561267357565b60405162461bcd60e51b8152602060048201526015602482015274195d1a195c881d1c985b9cd9995c8819985a5b1959605a1b6044820152606490fd5b8115801561273d575b612738576001600160a01b0390811661101081036126ee5750600080809381936122ff96165af16126e861263c565b5061266c565b60405163a9059cbb60e01b60208201526001600160a01b0390941660248501526044840192909252506122ff919061273382606481015b03601f198101845283611e10565b61274e565b505050565b506001600160a01b038316156126b9565b60408051908101916001600160a01b031667ffffffffffffffff831182841017611dca576127be926040526000806020958685527f5361666545524332303a206c6f772d6c6576656c2063616c6c206661696c656487860152868151910182855af16127b861263c565b9161284d565b805182811591821561282e575b50509050156127d75750565b6084906040519062461bcd60e51b82526004820152602a60248201527f5361666545524332303a204552433230206f7065726174696f6e20646964206e6044820152691bdd081cdd58d8d9595960b21b6064820152fd5b838092935001031261033457816128459101611f83565b8082386127cb565b919290156128af5750815115612861575090565b3b1561286a5790565b60405162461bcd60e51b815260206004820152601d60248201527f416464726573733a2063616c6c20746f206e6f6e2d636f6e74726163740000006044820152606490fd5b8251909150156128c25750805190602001fd5b60405162461bcd60e51b8152602060048201529081906107c5906024830190612050565b919290928315801561296d575b612967576001600160a01b039283169061101082036129245750506000806122ff9481948294165af16126e861263c565b6040516323b872dd60e01b60208201526001600160a01b0391821660248201529216604483015260648201939093526122ff929091506127338260848101612725565b50505050565b506001600160a01b038216156128f356fe33288df29d0f4a78de0aab5956626ed28d0abeb944e8f0d78dd1031efb53941fa2646970667358221220984c51455e17e7e16784cae4a577b6e4c0f58a03408f580c3c746311b36b3f4464736f6c63430008130033",
  "linkReferences": {},
  "deployedLinkReferences": {}
}