{
  "_format": "hh-sol-artifact-1",
  "contractName": "AlivelandERC1155Factory",
  "sourceName": "contracts/AlivelandERC1155Factory.sol",
  "abi": [
    {
      "inputs": [
        {
          "internalType": "string",
          "name": "_baseURI",
          "type": "string"
        },
        {
          "internalType": "uint256",
          "name": "_mintFee",
          "type": "uint256"
        },
        {
          "internalType": "uint256",
          "name": "_platformFee",
          "type": "uint256"
        },
        {
          "internalType": "address payable",
          "name": "_feeRecipient",
          "type": "address"
        }
      ],
      "stateMutability": "nonpayable",
      "type": "constructor"
    },
    {
      "anonymous": false,
      "inputs": [
        {
          "indexed": false,
          "internalType": "address",
          "name": "creator",
          "type": "address"
        },
        {
          "indexed": false,
          "internalType": "address",
          "name": "nft",
          "type": "address"
        },
        {
          "indexed": false,
          "internalType": "string",
          "name": "name",
          "type": "string"
        }
      ],
      "name": "ContractCreated",
      "type": "event"
    },
    {
      "anonymous": false,
      "inputs": [
        {
          "indexed": false,
          "internalType": "address",
          "name": "caller",
          "type": "address"
        },
        {
          "indexed": false,
          "internalType": "address",
          "name": "nft",
          "type": "address"
        }
      ],
      "name": "ContractDisabled",
      "type": "event"
    },
    {
      "anonymous": false,
      "inputs": [
        {
          "indexed": true,
          "internalType": "address",
          "name": "previousOwner",
          "type": "address"
        },
        {
          "indexed": true,
          "internalType": "address",
          "name": "newOwner",
          "type": "address"
        }
      ],
      "name": "OwnershipTransferred",
      "type": "event"
    },
    {
      "inputs": [],
      "name": "baseURI",
      "outputs": [
        {
          "internalType": "string",
          "name": "",
          "type": "string"
        }
      ],
      "stateMutability": "view",
      "type": "function"
    },
    {
      "inputs": [
        {
          "internalType": "address",
          "name": "",
          "type": "address"
        },
        {
          "internalType": "uint256",
          "name": "",
          "type": "uint256"
        }
      ],
      "name": "contracts",
      "outputs": [
        {
          "internalType": "address",
          "name": "",
          "type": "address"
        }
      ],
      "stateMutability": "view",
      "type": "function"
    },
    {
      "inputs": [
        {
          "internalType": "string",
          "name": "_name",
          "type": "string"
        },
        {
          "internalType": "string",
          "name": "_symbol",
          "type": "string"
        },
        {
          "internalType": "string",
          "name": "_ipfsUrl",
          "type": "string"
        }
      ],
      "name": "createNFTContract",
      "outputs": [
        {
          "internalType": "address",
          "name": "",
          "type": "address"
        }
      ],
      "stateMutability": "payable",
      "type": "function"
    },
    {
      "inputs": [
        {
          "internalType": "address",
          "name": "_tokenContractAddress",
          "type": "address"
        }
      ],
      "name": "disableTokenContract",
      "outputs": [],
      "stateMutability": "nonpayable",
      "type": "function"
    },
    {
      "inputs": [
        {
          "internalType": "address",
          "name": "",
          "type": "address"
        }
      ],
      "name": "exists",
      "outputs": [
        {
          "internalType": "bool",
          "name": "",
          "type": "bool"
        }
      ],
      "stateMutability": "view",
      "type": "function"
    },
    {
      "inputs": [],
      "name": "feeRecipient",
      "outputs": [
        {
          "internalType": "address payable",
          "name": "",
          "type": "address"
        }
      ],
      "stateMutability": "view",
      "type": "function"
    },
    {
      "inputs": [
        {
          "internalType": "address",
          "name": "_creator",
          "type": "address"
        }
      ],
      "name": "getContractList",
      "outputs": [
        {
          "internalType": "address[]",
          "name": "",
          "type": "address[]"
        }
      ],
      "stateMutability": "view",
      "type": "function"
    },
    {
      "inputs": [
        {
          "internalType": "address",
          "name": "",
          "type": "address"
        }
      ],
      "name": "indexes",
      "outputs": [
        {
          "internalType": "uint256",
          "name": "",
          "type": "uint256"
        }
      ],
      "stateMutability": "view",
      "type": "function"
    },
    {
      "inputs": [],
      "name": "mintFee",
      "outputs": [
        {
          "internalType": "uint256",
          "name": "",
          "type": "uint256"
        }
      ],
      "stateMutability": "view",
      "type": "function"
    },
    {
      "inputs": [],
      "name": "owner",
      "outputs": [
        {
          "internalType": "address",
          "name": "",
          "type": "address"
        }
      ],
      "stateMutability": "view",
      "type": "function"
    },
    {
      "inputs": [],
      "name": "platformFee",
      "outputs": [
        {
          "internalType": "uint256",
          "name": "",
          "type": "uint256"
        }
      ],
      "stateMutability": "view",
      "type": "function"
    },
    {
      "inputs": [
        {
          "internalType": "address",
          "name": "_tokenContractAddress",
          "type": "address"
        }
      ],
      "name": "registerERC1155Contract",
      "outputs": [],
      "stateMutability": "nonpayable",
      "type": "function"
    },
    {
      "inputs": [],
      "name": "renounceOwnership",
      "outputs": [],
      "stateMutability": "nonpayable",
      "type": "function"
    },
    {
      "inputs": [
        {
          "internalType": "address",
          "name": "newOwner",
          "type": "address"
        }
      ],
      "name": "transferOwnership",
      "outputs": [],
      "stateMutability": "nonpayable",
      "type": "function"
    },
    {
      "inputs": [
        {
          "internalType": "string",
          "name": "_baseURI",
          "type": "string"
        }
      ],
      "name": "updateBaseURI",
      "outputs": [],
      "stateMutability": "nonpayable",
      "type": "function"
    },
    {
      "inputs": [
        {
          "internalType": "address payable",
          "name": "_feeRecipient",
          "type": "address"
        }
      ],
      "name": "updateFeeRecipient",
      "outputs": [],
      "stateMutability": "nonpayable",
      "type": "function"
    },
    {
      "inputs": [
        {
          "internalType": "uint256",
          "name": "_mintFee",
          "type": "uint256"
        }
      ],
      "name": "updateMintFee",
      "outputs": [],
      "stateMutability": "nonpayable",
      "type": "function"
    },
    {
      "inputs": [
        {
          "internalType": "uint256",
          "name": "_platformFee",
          "type": "uint256"
        }
      ],
      "name": "updatePlatformFee",
      "outputs": [],
      "stateMutability": "nonpayable",
      "type": "function"
    }
  ],
  "bytecode": "0x6080604052346200027b5762004c7d803803806200001d8162000295565b92833981016080828203126200027b5781516001600160401b0392908381116200027b578101601f938385830112156200027b578151908082116200026557602091601f19936200007484868a8501160162000295565b968288528483830101116200027b57839060005b83811062000280575050600091870101528184015192606060408601519501519660018060a01b03968789168099036200027b5760005460018060a01b031998338a8316176000553391167f8be0079c531659141344cd1fd0a4f28419497f9722a3daafe3b4186f6b6457e0600080a3805193841162000265576001948554938685811c951680156200025a575b8286101462000244578484879611620001e8575b50819385116001146200018057505060009262000174575b5050600019600383901b1c191690821b1790555b60025560035560045416176004556040516149c19081620002bc8239f35b01519050388062000142565b869593929193168560005283600020936000905b828210620001ce5750508411620001b4575b505050811b01905562000156565b015160001960f88460031b161c19169055388080620001a6565b848401518655889790950194938401939081019062000194565b90919293945086600052826000208580880160051c8201928589106200023a575b9188978a9297969594930160051c01915b8281106200022a5750506200012a565b600081558897508991016200021a565b9250819262000209565b634e487b7160e01b600052602260045260246000fd5b94607f169462000116565b634e487b7160e01b600052604160045260246000fd5b600080fd5b81810183015189820184015285920162000088565b6040519190601f01601f191682016001600160401b03811183821017620002655760405256fe604060808152600490813610156200001657600080fd5b600091823560e01c9081631271acd31462000ad757816313966db51462000ab657816326232a2e1462000a955781632db78d931462000a59578163469048401462000a2f578163544d34a914620009275781635c395cc914620006445781636c0360eb14620005fa578163715018a6146200059c57816384017e5214620005765781638da5cb5b146200054c578163931688cb14620003a5578163aa0b5988146200037f578163d39bb16a146200029c578163ed23f8c31462000254578163f160d369146200020e578163f2fde38b1462000140575063f6a3d24e14620000fc57600080fd5b346200013c5760203660031901126200013c5760209160ff9082906001600160a01b036200012962000dff565b1681526005855220541690519015158152f35b5080fd5b9050346200020a5760203660031901126200020a576200015f62000dff565b906200016a62000f48565b6001600160a01b03918216928315620001b857505082546001600160a01b0319811683178455167f8be0079c531659141344cd1fd0a4f28419497f9722a3daafe3b4186f6b6457e08380a380f35b906020608492519162461bcd60e51b8352820152602660248201527f4f776e61626c653a206e6577206f776e657220697320746865207a65726f206160448201526564647265737360d01b6064820152fd5b8280fd5b8390346200013c5760203660031901126200013c5780356001600160a01b038116908190036200020a576200024262000f48565b81546001600160a01b03191617905580f35b5050346200013c57806003193601126200013c576020916001600160a01b03908290826200028162000dff565b16815260078552818120602435825285522054169051908152f35b9050346200020a5760203660031901126200020a57620002bb62000dff565b620002c562000f48565b6001600160a01b031680845260056020528284205490919060ff16156200032c575090817f0d60ee093b891105dfb73abfbe0421cc1a07500f5c1776ec7d189e6c7f6d6340928452600560205281842060ff1981541690558151903382526020820152a180f35b608490602084519162461bcd60e51b8352820152602760248201527f416c6976656c616e644e465420636f6e7472616374206973206e6f74207265676044820152661a5cdd195c995960ca1b6064820152fd5b8390346200013c5760203660031901126200013c576200039e62000f48565b3560035580f35b833462000549576020806003193601126200013c5767ffffffffffffffff83358181116200054557620003dc903690860162000dad565b93620003e762000f48565b845191821162000532575060019162000401835462000e16565b601f8111620004c9575b5080601f83116001146200044857508394829394926200043c575b5050600019600383901b1c191690821b17905580f35b01519050848062000426565b838552601f198316957fb10e2d527612073b26eecdfd717e6a320cf44b4afac2b0732d9fcbe2b7fa0cf6929186905b888210620004b1575050838596971062000497575b505050811b01905580f35b015160001960f88460031b161c191690558480806200048c565b80878596829496860151815501950193019062000477565b8385527fb10e2d527612073b26eecdfd717e6a320cf44b4afac2b0732d9fcbe2b7fa0cf6601f840160051c81019183851062000527575b601f0160051c019084905b8281106200051b5750506200040b565b8681550184906200050b565b909150819062000500565b634e487b7160e01b845260419052602483fd5b8380fd5b80fd5b5050346200013c57816003193601126200013c57905490516001600160a01b039091168152602090f35b8390346200013c5760203660031901126200013c576200059562000f48565b3560025580f35b83346200054957806003193601126200054957620005b962000f48565b80546001600160a01b03198116825581906001600160a01b03167f8be0079c531659141344cd1fd0a4f28419497f9722a3daafe3b4186f6b6457e08280a380f35b5050346200013c57816003193601126200013c57805162000640916200062d82620006258162000e53565b038362000d57565b5191829160208352602083019062000f21565b0390f35b9050346200020a5760208060031936011262000545576200066462000dff565b916200066f62000f48565b6001600160a01b038316808652600583528486205490919060ff16620008cf5784516301ffc9a760e01b8152636cdb3d1360e11b828201528381602481865afa908115620008c557879162000888575b501562000845578186949392918592835260058452868320600160ff1982541617905533835260078452868320600685528784205484528452868320826bffffffffffffffffffffffff60a01b8254161790553383526006845286832062000728815462000fa1565b90558651809681936306fdde0360e01b83525af19283156200083b57859362000786575b5050620007807fd127e714d98e23e914e6659df0aa28a12758da7c47219dbcc981d617de644b139351928392338462000fc7565b0390a180f35b909392503d8086833e6200079b818362000d57565b8101908481830312620008375780519067ffffffffffffffff82116200083357019080601f830112156200083757815194620007d78662000d90565b91620007e68651938462000d57565b86835281878501011162000833577fd127e714d98e23e914e6659df0aa28a12758da7c47219dbcc981d617de644b13956200078093826200082b938501910162000efc565b92936200074c565b8680fd5b8580fd5b84513d87823e3d90fd5b845162461bcd60e51b8152908101839052601760248201527f4e6f7420616e204552433131353520636f6e74726163740000000000000000006044820152606490fd5b90508381813d8311620008bd575b620008a2818362000d57565b810103126200083357518015158103620008335738620006bf565b503d62000896565b86513d89823e3d90fd5b845162461bcd60e51b8152908101839052602c60248201527f416c6976656c616e644552433131353520636f6e747261637420616c7265616460448201526b1e481c9959da5cdd195c995960a21b6064820152608490fd5b82843462000549576020806003193601126200013c576001600160a01b0392836200095162000dff565b1693848452600691828452808520549262000988620009708562000ff5565b946200097f8451968762000d57565b80865262000ff5565b8486019190601f1901368337865b88885281875283882054811015620009f2576007875283882081895287528484892054168651821015620009df5790620009d991888260051b8901015262000fa1565b62000996565b634e487b7160e01b895260328b52602489fd5b50508584868451948186019282875251809352850193925b82811062000a185785850386f35b835187168552938101939281019260010162000a0a565b9050346200020a57826003193601126200020a575490516001600160a01b03909116815260209150f35b5050346200013c5760203660031901126200013c5760209181906001600160a01b0362000a8562000dff565b1681526006845220549051908152f35b5050346200013c57816003193601126200013c576020906003549051908152f35b5050346200013c57816003193601126200013c576020906002549051908152f35b838360603660031901126200013c5767ffffffffffffffff8335818111620005455762000b08903690860162000dad565b9060243581811162000d535762000b23903690870162000dad565b94604435828111620008375762000b3e903690830162000dad565b600354341062000d1a5760018060a01b03928680808034888854165af13d1562000d14573d62000b6e8162000d90565b9062000b7d8951928362000d57565b81528860203d92013e5b1562000cdf5760025491848454169087519461397d90818701948786109086111762000ccc5750859493929162000c06916200100f873960e0845262000bf762000bea62000bd960e087018c62000f21565b60209e8f8883039089015262000f21565b8581038c87015262000e53565b90848203606086015262000f21565b92608083015260a082015260c033910152039085f0801562000cbf57918362000cb6927fd127e714d98e23e914e6659df0aa28a12758da7c47219dbcc981d617de644b1394169586815260058852818120600160ff1982541617905533815260078852818120600689528282205482528852818120876bffffffffffffffffffffffff60a01b825416179055338152600688522062000ca6815462000fa1565b9055835191829186338462000fc7565b0390a151908152f35b50505051903d90823e3d90fd5b634e487b7160e01b8b526041905260248afd5b855162461bcd60e51b8152602081850152600f60248201526e151c985b9cd9995c8819985a5b1959608a1b6044820152606490fd5b62000b87565b845162461bcd60e51b8152602081840152601360248201527224b739bab33334b1b4b2b73a10333ab732399760691b6044820152606490fd5b8480fd5b90601f8019910116810190811067ffffffffffffffff82111762000d7a57604052565b634e487b7160e01b600052604160045260246000fd5b67ffffffffffffffff811162000d7a57601f01601f191660200190565b81601f8201121562000dfa5780359062000dc78262000d90565b9262000dd7604051948562000d57565b8284526020838301011162000dfa57816000926020809301838601378301015290565b600080fd5b600435906001600160a01b038216820362000dfa57565b90600182811c9216801562000e48575b602083101462000e3257565b634e487b7160e01b600052602260045260246000fd5b91607f169162000e26565b9060009160019081549162000e688362000e16565b8083529281811690811562000edf575060011462000e8557505050565b80929394506000527fb10e2d527612073b26eecdfd717e6a320cf44b4afac2b0732d9fcbe2b7fa0cf6916000925b84841062000ec657505060209250010190565b8054602085850181019190915290930192810162000eb3565b915050602093945060ff929192191683830152151560051b010190565b60005b83811062000f105750506000910152565b818101518382015260200162000eff565b9060209162000f3c8151809281855285808601910162000efc565b601f01601f1916010190565b6000546001600160a01b0316330362000f5d57565b606460405162461bcd60e51b815260206004820152602060248201527f4f776e61626c653a2063616c6c6572206973206e6f7420746865206f776e65726044820152fd5b600019811462000fb15760010190565b634e487b7160e01b600052601160045260246000fd5b6001600160a01b0391821681529116602082015260606040820181905262000ff29291019062000f21565b90565b67ffffffffffffffff811162000d7a5760051b6020019056fe604060808152346200090a576200397d90813803806200001f816200090f565b938439820160e0838203126200090a5782516001600160401b0381116200090a57816200004e91850162000935565b60208401519091906001600160401b0381116200090a57816200007391860162000935565b848401516001600160401b0381116200090a57826200009491870162000935565b606086015190926001600160401b0382116200090a57620000b791870162000935565b608086015160a087015191966001600160a01b0392919083831683036200090a5760c0015193838516968786036200090a57620000f433620009fd565b86516001600160401b038111620005925762000112600554620009a7565b601f8111620008d3575b50806020601f821160011462000848576000916200083c575b508160011b916000199060031b1c1916176005555b60ff196006541660065562000161600854620009a7565b601f81116200080b575b5060006008558051906001600160401b0382116200059257819062000192600f54620009a7565b601f8111620007c9575b50602090601f83116001146200074f5760009262000743575b50508160011b916000199060031b1c191617600f555b8051906001600160401b03821162000592578190620001ec601054620009a7565b601f811162000701575b50602090601f8311600114620006835760009262000677575b50508160011b916000199060031b1c1916176010555b87516001600160401b038111620005925762000243600d54620009a7565b601f811162000635575b506020601f8211600114620005b45781906200029f9798999a600092620005a8575b50508160011b916000199060031b1c191617600d555b600b551660018060a01b0319600e541617600e55620009fd565b8051906001600160401b0382116200059257620002be600854620009a7565b601f811162000544575b50602090601f8311600114620004c457620003ee93929160009183620004b8575b50508160011b916000199060031b1c1916176008555b60008052600180602052836000208260005260205260ff846000205416156200047a575b6000805260026020526200033b828560002062000a44565b507f9f2df0fed2c77648de5860a4cc508cd0818c85b8b8a1ab4ceeef8d981c8956a68060005281602052846000208360005260205260ff856000205416156200043c575b600052600260205262000396828560002062000a44565b507f65d7a28e3265b37a6474929f336521b332c1681b933f6cb9f3376673440d862a908160005280602052846000208360005260205260ff85600020541615620003fd575b5060005260026020528260002062000a44565b5051612e0b908162000ad28239f35b81600052806020528460002083600052602052846000209060ff19825416179055338282600080516020620038dd833981519152600080a438620003db565b80600052816020528460002083600052602052846000208260ff19825416179055338382600080516020620038dd833981519152600080a46200037f565b60008052806020528360002082600052602052836000208160ff1982541617905533826000600080516020620038dd8339815191528180a462000323565b015190503880620002e9565b600860009081526000805160206200391d833981519152929190601f198516905b8181106200052b5750916001939185620003ee9796941062000511575b505050811b01600855620002ff565b015160001960f88460031b161c1916905538808062000502565b92936020600181928786015181550195019301620004e5565b600860005262000580906000805160206200391d833981519152601f850160051c8101916020861062000587575b601f0160051c0190620009e4565b38620002c8565b909150819062000572565b634e487b7160e01b600052604160045260246000fd5b0151905038806200026f565b600d6000908152600080516020620038fd8339815191529a90601f198416905b8181106200061c5750916200029f98999a9b9184600195941062000602575b505050811b01600d5562000285565b015160001960f88460031b161c19169055388080620005f3565b838301518d556001909c019b60209384019301620005d4565b600d6000526200067090600080516020620038fd833981519152601f840160051c810191602085106200058757601f0160051c0190620009e4565b386200024d565b0151905038806200020f565b6010600090815293506000805160206200393d83398151915291905b601f1984168510620006e5576001945083601f19811610620006cb575b505050811b0160105562000225565b015160001960f88460031b161c19169055388080620006bc565b818101518355602094850194600190930192909101906200069f565b60106000526200073c906000805160206200393d833981519152601f850160051c810191602086106200058757601f0160051c0190620009e4565b38620001f6565b015190503880620001b5565b600f60009081526000805160206200395d8339815191529350601f198516905b818110620007b0575090846001959493921062000796575b505050811b01600f55620001cb565b015160001960f88460031b161c1916905538808062000787565b929360206001819287860151815501950193016200076f565b600f60005262000804906000805160206200395d833981519152601f850160051c810191602086106200058757601f0160051c0190620009e4565b386200019c565b60086000526200083590601f0160051c6000805160206200391d83398151915290810190620009e4565b386200016b565b90508801513862000135565b600560009081527f036b6384b5eca791c62761152d0c79bb0604c104a5fb6f4eb0703f3154bb3db09250601f198416905b8b828210620008ba5750509083600194939210620008a0575b5050811b016005556200014a565b8a015160001960f88460031b161c19169055388062000892565b6001849560209395849301518155019401920162000879565b620009039060056000526020600020601f840160051c810191602085106200058757601f0160051c0190620009e4565b386200011c565b600080fd5b6040519190601f01601f191682016001600160401b038111838210176200059257604052565b919080601f840112156200090a5782516001600160401b03811162000592576020906200096b601f8201601f191683016200090f565b928184528282870101116200090a5760005b8181106200099357508260009394955001015290565b85810183015184820184015282016200097d565b90600182811c92168015620009d9575b6020831014620009c357565b634e487b7160e01b600052602260045260246000fd5b91607f1691620009b7565b818110620009f0575050565b60008155600101620009e4565b600080546001600160a01b039283166001600160a01b03198216811783559216907f8be0079c531659141344cd1fd0a4f28419497f9722a3daafe3b4186f6b6457e09080a3565b9190600183016000908282528060205260408220541560001462000acb578454946801000000000000000086101562000ab7576001860180825586101562000aa357836040949596828552602085200155549382526020522055600190565b634e487b7160e01b83526032600452602483fd5b634e487b7160e01b83526041600452602483fd5b5092505056fe6080604052600436101561001257600080fd5b60003560e01c8062fdd58e14611a1e57806301ffc9a71461197c57806306fdde03146118d65780630e89341c146118b757806313966db514611899578063248a9ca31461186a5780632799276d1461184c5780632eb2c2d6146113a05780632f2ff15d146112d95780632fb102cf1461127557806336568abe146111e35780633f4ba83a146110c057806346904840146110975780634e1273f414610ef95780634f558e7914610ecb5780635c975abb14610ea85780637132048c14610d19578063715018a614610cc05780638456cb5914610ba05780638da5cb5b14610b775780639010d07c14610b3057806391d1485414610ae357806395d89b4114610a3d578063a217fddf14610a21578063a22cb4651461093d578063bd85b03914610911578063c6f516fb146108b3578063ca15c87314610887578063cd29c71a146107a1578063d539139314610766578063d547741f14610727578063e63ab1e9146106ec578063e985e9c514610696578063f242432a1461026a5763f2fde38b1461019c57600080fd5b34610265576020366003190112610265576101b5611a4d565b6101bd611fb7565b6001600160a01b0390811690811561021157600054826bffffffffffffffffffffffff60a01b821617600055167f8be0079c531659141344cd1fd0a4f28419497f9722a3daafe3b4186f6b6457e0600080a3005b60405162461bcd60e51b815260206004820152602660248201527f4f776e61626c653a206e6577206f776e657220697320746865207a65726f206160448201526564647265737360d01b6064820152608490fd5b600080fd5b346102655760a036600319011261026557610283611a4d565b61028b611a63565b90608480356001600160401b038111610265576102ac903690600401611bac565b6001600160a01b0391908383163314801561066b575b6102cb906120e3565b828516156102d98115612146565b6102e4604435612359565b6102ef606435612359565b9160ff6006541661061257858716156105b2575b6104f2575b505060443560005260209460038652604060002084861660005286526040600020546103386064358210156121a0565b604435600052600387526040600020858716600052875260643590036040600020556044356000526003865260406000208482166000528652604060002061038360643582546121ff565b905560405160443581526064358782015284821690858716907fc3d58168c5ae7397731d063d5bbf3d657854427343f4c083240f7aacaa2d0f6260403392a4803b6103ca57005b60a06000610414958895604051978896879586938563f23a6e6160e01b9d8e87523360048801521660248601526044356044860152606435606486015284015260a4830190611af7565b0393165af1600091816104c3575b50610499575050600190610434612275565b6308c379a014610464575b50610447575b005b60405162461bcd60e51b81528061046060048201612304565b0390fd5b61046c612293565b9081610478575061043f565b61046060405192839262461bcd60e51b845260048401526024830190611af7565b6001600160e01b0319161490506104455760405162461bcd60e51b8152806104606004820161222c565b6104e4919250843d86116104eb575b6104dc8183611ab3565b81019061220c565b9084610422565b503d6104d2565b92959194909360005b84518110156105a35761050e81866120b9565b519061051a81886120b9565b5182600052600760205260406000205481811061054e5761054993600052600760205203604060002055612094565b6104fb565b60405162461bcd60e51b815260206004820152602860248201527f455243313135353a206275726e20616d6f756e74206578636565647320746f74604482015267616c537570706c7960c01b60648201528b90fd5b50935093909491508580610308565b959260009794919592975b865181101561060457806105d46105ff928b6120b9565b516105df828a6120b9565b5160005260076020526105f860406000209182546121ff565b9055612094565b6105bd565b509295969194909396610303565b60405162461bcd60e51b815260206004820152602c60248201527f455243313135355061757361626c653a20746f6b656e207472616e736665722060448201526b1dda1a5b19481c185d5cd95960a21b60648201528590fd5b5082841660005260046020526040600020336000526020526102cb60ff6040600020541690506102c2565b34610265576040366003190112610265576106af611a4d565b6106b7611a63565b9060018060a01b03809116600052600460205260406000209116600052602052602060ff604060002054166040519015158152f35b346102655760003660031901126102655760206040517f65d7a28e3265b37a6474929f336521b332c1681b933f6cb9f3376673440d862a8152f35b3461026557604036600319011261026557610445600435610746611a63565b90806000526001602052610761600160406000200154611c27565b611f2e565b346102655760003660031901126102655760206040517f9f2df0fed2c77648de5860a4cc508cd0818c85b8b8a1ab4ceeef8d981c8956a68152f35b34610265576000366003190112610265576040516000600d546107c381611a79565b808452906001908181169081156108605750600114610805575b610801846107ed81860382611ab3565b604051918291602083526020830190611af7565b0390f35b600d600090815292507fd7b6990105719101dabeb77144f2a3385c8033acd3af97e9423a695e81ad1eb55b8284106108485750505081016020016107ed826107dd565b80546020858701810191909152909301928101610830565b60ff191660208087019190915292151560051b850190920192506107ed91508390506107dd565b346102655760203660031901126102655760043560005260026020526020604060002054604051908152f35b60a0366003190112610265576108c7611a4d565b6001600160401b0390606435828111610265576108e8903690600401611bac565b60843592831161026557610903610445933690600401611bac565b91604435906024359061275c565b346102655760203660031901126102655760043560005260076020526020604060002054604051908152f35b3461026557604036600319011261026557610956611a4d565b60243590811515809203610265576001600160a01b0316903382146109ca57336000526004602052604060002082600052602052604060002060ff1981541660ff83161790556040519081527f17307eab39ab6107e8899845ad3d59bd9653f200f220920489ca2b5937696c3160203392a3005b60405162461bcd60e51b815260206004820152602960248201527f455243313135353a2073657474696e6720617070726f76616c20737461747573604482015268103337b91039b2b63360b91b6064820152608490fd5b3461026557600036600319011261026557602060405160008152f35b34610265576000366003190112610265576040516000601054610a5f81611a79565b808452906001908181169081156108605750600114610a8857610801846107ed81860382611ab3565b6010600090815292507f1b6847dc741a1b0cd08d278845f9d819d87b734759afb55fe2de5cb82a9ae6725b828410610acb5750505081016020016107ed826107dd565b80546020858701810191909152909301928101610ab3565b3461026557604036600319011261026557610afc611a63565b600435600052600160205260406000209060018060a01b0316600052602052602060ff604060002054166040519015158152f35b346102655760403660031901126102655760043560005260026020526020610b5e602435604060002061239f565b905460405160039290921b1c6001600160a01b03168152f35b34610265576000366003190112610265576000546040516001600160a01b039091168152602090f35b34610265576000366003190112610265573360009081527fb9cbbae02fe941283ec0eefd7b121e3bc7f89fae077b27bdd75a7fd4cf1543a8602052604090205460ff1615610c625760065460ff8116610c2a5760019060ff1916176006557f62e78cea01bee320cd4e420270b5ea74000d11b0c9f74754ebdbfc544b05a2586020604051338152a1005b60405162461bcd60e51b815260206004820152601060248201526f14185d5cd8589b194e881c185d5cd95960821b6044820152606490fd5b60405162461bcd60e51b815260206004820152603060248201527f416c6976656c616e64455243313135353a206d7573742068617665207061757360448201526f657220726f6c6520746f20706175736560801b6064820152608490fd5b3461026557600036600319011261026557610cd9611fb7565b600080546001600160a01b0319811682556001600160a01b03167f8be0079c531659141344cd1fd0a4f28419497f9722a3daafe3b4186f6b6457e08280a3005b3461026557602080600319360112610265576001600160401b0360043581811161026557610d4b903690600401611bac565b91610d54611fb7565b8251918211610e9257610d68600d54611a79565b601f8111610e2e575b5080601f8311600114610dad57508192600092610da2575b5050600019600383901b1c191660019190911b17600d55005b015190508280610d89565b90601f19831693600d6000527fd7b6990105719101dabeb77144f2a3385c8033acd3af97e9423a695e81ad1eb5926000905b868210610e165750508360019510610dfd575b505050811b01600d55005b015160001960f88460031b161c19169055828080610df2565b80600185968294968601518155019501930190610ddf565b600d6000527fd7b6990105719101dabeb77144f2a3385c8033acd3af97e9423a695e81ad1eb5601f840160051c810191838510610e88575b601f0160051c01905b818110610e7c5750610d71565b60008155600101610e6f565b9091508190610e66565b634e487b7160e01b600052604160045260246000fd5b3461026557600036600319011261026557602060ff600654166040519015158152f35b3461026557602036600319011261026557600435600052600760205260206040600020541515604051908152f35b34610265576040366003190112610265576004356001600160401b03808211610265573660238301121561026557816004013590610f3682611b1c565b92610f446040519485611ab3565b82845260209260248486019160051b8301019136831161026557602401905b8282106110785750505060243590811161026557610f85903690600401611b33565b825181510361102157825192610f9a84611b1c565b93610fa86040519586611ab3565b808552610fb7601f1991611b1c565b01368486013760005b815181101561100a5761100590610ff56001600160a01b03610fe283866120b9565b5116610fee83876120b9565b519061200f565b610fff82886120b9565b52612094565b610fc0565b505050610801604051928284938452830190611bf3565b60405162461bcd60e51b815260048101839052602960248201527f455243313135353a206163636f756e747320616e6420696473206c656e677468604482015268040dad2e6dac2e8c6d60bb1b6064820152608490fd5b81356001600160a01b0381168103610265578152908401908401610f63565b3461026557600036600319011261026557600e546040516001600160a01b039091168152602090f35b34610265576000366003190112610265573360009081527fb9cbbae02fe941283ec0eefd7b121e3bc7f89fae077b27bdd75a7fd4cf1543a8602052604090205460ff16156111835760065460ff8116156111475760ff19166006557f5db9ee0a495bf2e6ff9c91a7834c1ba4fdd244a5e8aa4e537bd38aeae4b073aa6020604051338152a1005b60405162461bcd60e51b815260206004820152601460248201527314185d5cd8589b194e881b9bdd081c185d5cd95960621b6044820152606490fd5b60405162461bcd60e51b815260206004820152603260248201527f416c6976656c616e64455243313135353a206d75737420686176652070617573604482015271657220726f6c6520746f20756e706175736560701b6064820152608490fd5b34610265576040366003190112610265576111fc611a63565b336001600160a01b038216036112185761044590600435611f2e565b60405162461bcd60e51b815260206004820152602f60248201527f416363657373436f6e74726f6c3a2063616e206f6e6c792072656e6f756e636560448201526e103937b632b9903337b91039b2b63360891b6064820152608490fd5b608036600319011261026557611289611a4d565b6001600160401b0390604435828111610265576112aa903690600401611bac565b606435928311610265576112c5610445933690600401611bac565b91600a5460018101600a556024359161275c565b346102655760403660031901126102655761044560043560026112fa611a63565b918060005260209060018252611317600160406000200154611c27565b60008181526001835260408082206001600160a01b0390961680835295845290205460ff1615611350575b6000525260406000206123b7565b806000526001825260406000208460005282526040600020600160ff198254161790553384827f2f8788117e7eff1d82e926ec794901d17c78024a50270940304540a733656f0d600080a4611342565b346102655760031960a036820112610265576113ba611a4d565b906113c3611a63565b6001600160401b0390604435828111610265576113e4903690600401611b33565b91606435818111610265576113fd903690600401611b33565b92608491823590811161026557611418903690600401611bac565b6001600160a01b03929087841633148015611821575b611437906120e3565b82518651036117cd578385161561144e8115612146565b60ff600654166117745784891615611736575b611673575b60005b83518110156114fe57806114806114f992866120b9565b518a61148c838b6120b9565b5191806000526003908360209383855260406000208c82166000528552604060002054906114bc838310156121a0565b836000528486528c604060002091166000528552036040600020556000528152604060002090888a16600052526105f860406000209182546121ff565b611469565b509095949394604051604081526115186040820185611bf3565b908082036020820152858816917f4a39dc06d4c0dbc64b70af90fd698a233a518aa5d07e595d983b8c0526c8f7fb878c16928061155633948c611bf3565b0390a4853b61156157005b60405163bc197c8160e01b808252336004830152988516602482015260a0604482015296879586946115979060a4870190611bf3565b838682030160648701526115aa91611bf3565b9184830301908401526115bc91611af7565b03921691815a602094600091f160009181611653575b5061162b57505060016115e3612275565b6308c379a0146115f4575b61044757005b6115fc612293565b8061160757506115ee565b60405162461bcd60e51b815260206004820152908190610460906024830190611af7565b6001600160e01b031916146104455760405162461bcd60e51b8152806104606004820161222c565b61166c91925060203d81116104eb576104dc8183611ab3565b90836115d2565b9591939094969260005b85518110156117295761169081876120b9565b5161169b828b6120b9565b519080600052602060078152604060002054918383106116d4576116cf949392916007916000525203604060002055612094565b61167d565b60405162461bcd60e51b815260048101839052602860248201527f455243313135353a206275726e20616d6f756e74206578636565647320746f74604482015267616c537570706c7960c01b60648201528b90fd5b5092969490939195611466565b9794929693919060005b88518110156117675780611757611762928a6120b9565b516105df828c6120b9565b611740565b5090919396929497611461565b60405162461bcd60e51b815260206004820152602c60248201527f455243313135355061757361626c653a20746f6b656e207472616e736665722060448201526b1dda1a5b19481c185d5cd95960a21b60648201528390fd5b5060405162461bcd60e51b815260206004820152602860248201527f455243313135353a2069647320616e6420616d6f756e7473206c656e677468206044820152670dad2e6dac2e8c6d60c31b6064820152fd5b50838816600052600460205260406000203360005260205261143760ff60406000205416905061142e565b34610265576000366003190112610265576020600c54604051908152f35b346102655760203660031901126102655760043560005260016020526020600160406000200154604051908152f35b34610265576000366003190112610265576020600b54604051908152f35b34610265576020366003190112610265576108016107ed60043561251d565b34610265576000366003190112610265576040516000600f546118f881611a79565b80845290600190818116908115610860575060011461192157610801846107ed81860382611ab3565b600f600090815292507f8d1108e10bcb7c27dddfc02ed9d693a074039d026cf4ea4240b40f7d581ac8025b8284106119645750505081016020016107ed826107dd565b8054602085870181019190915290930192810161194c565b346102655760203660031901126102655760043563ffffffff60e01b811680910361026557602090636cdb3d1360e11b8114908115611a0d575b81156119c8575b506040519015158152f35b635a05180f60e01b8114915081156119e2575b50826119bd565b637965db0b60e01b8114915081156119fc575b50826119db565b6301ffc9a760e01b149050826119f5565b6303a24d0760e21b811491506119b6565b34610265576040366003190112610265576020611a45611a3c611a4d565b6024359061200f565b604051908152f35b600435906001600160a01b038216820361026557565b602435906001600160a01b038216820361026557565b90600182811c92168015611aa9575b6020831014611a9357565b634e487b7160e01b600052602260045260246000fd5b91607f1691611a88565b90601f801991011681019081106001600160401b03821117610e9257604052565b60005b838110611ae75750506000910152565b8181015183820152602001611ad7565b90602091611b1081518092818552858086019101611ad4565b601f01601f1916010190565b6001600160401b038111610e925760051b60200190565b81601f8201121561026557803591611b4a83611b1c565b92611b586040519485611ab3565b808452602092838086019260051b820101928311610265578301905b828210611b82575050505090565b81358152908301908301611b74565b6001600160401b038111610e9257601f01601f191660200190565b81601f8201121561026557803590611bc382611b91565b92611bd16040519485611ab3565b8284526020838301011161026557816000926020809301838601378301015290565b90815180825260208080930193019160005b828110611c13575050505090565b835185529381019392810192600101611c05565b60008181526001602091818352604093848220338352845260ff858320541615611c52575050505050565b3385519360608501926001600160401b039386811085821117611e5a578852602a86528686019288368537865115611f1a57603084538651831015611f1a576078602188015360295b838111611eb05750611e6e5790875193608085019085821090821117611e5a57885260428452868401946060368737845115611e4657603086538451821015611e465790607860218601536041915b818311611dd857505050611d9657610460938693611d7a93611d6b604894611d429a519a8b957f416363657373436f6e74726f6c3a206163636f756e74200000000000000000008c8801525180926037880190611ad4565b8401917001034b99036b4b9b9b4b733903937b6329607d1b603784015251809386840190611ad4565b01036028810187520185611ab3565b5192839262461bcd60e51b845260048401526024830190611af7565b60648587519062461bcd60e51b825280600483015260248201527f537472696e67733a20686578206c656e67746820696e73756666696369656e746044820152fd5b909192600f81166010811015611e32576f181899199a1a9b1b9c1cb0b131b232b360811b901a611e08858861238e565b5360041c928015611e1e57600019019190611cea565b634e487b7160e01b82526011600452602482fd5b634e487b7160e01b83526032600452602483fd5b634e487b7160e01b81526032600452602490fd5b634e487b7160e01b86526041600452602486fd5b60648789519062461bcd60e51b825280600483015260248201527f537472696e67733a20686578206c656e67746820696e73756666696369656e746044820152fd5b90600f81166010811015611f06576f181899199a1a9b1b9c1cb0b131b232b360811b901a611ede838a61238e565b5360041c908015611ef25760001901611c9b565b634e487b7160e01b87526011600452602487fd5b634e487b7160e01b88526032600452602488fd5b634e487b7160e01b86526032600452602486fd5b906040611f6c9260009080825260016020528282209360018060a01b03169384835260205260ff8383205416611f6f575b8152600260205220612441565b50565b808252600160205282822084835260205282822060ff1981541690553384827ff6391f5c32d9c69d2a47ea670b442974b53935d1edc7fd64eb21e047a839171b8580a4611f5f565b6000546001600160a01b03163303611fcb57565b606460405162461bcd60e51b815260206004820152602060248201527f4f776e61626c653a2063616c6c6572206973206e6f7420746865206f776e65726044820152fd5b6001600160a01b031690811561203c57600052600360205260406000209060005260205260406000205490565b60405162461bcd60e51b815260206004820152602a60248201527f455243313135353a2061646472657373207a65726f206973206e6f742061207660448201526930b634b21037bbb732b960b11b6064820152608490fd5b60001981146120a35760010190565b634e487b7160e01b600052601160045260246000fd5b80518210156120cd5760209160051b010190565b634e487b7160e01b600052603260045260246000fd5b156120ea57565b60405162461bcd60e51b815260206004820152602e60248201527f455243313135353a2063616c6c6572206973206e6f7420746f6b656e206f776e60448201526d195c881bdc88185c1c1c9bdd995960921b6064820152608490fd5b1561214d57565b60405162461bcd60e51b815260206004820152602560248201527f455243313135353a207472616e7366657220746f20746865207a65726f206164604482015264647265737360d81b6064820152608490fd5b156121a757565b60405162461bcd60e51b815260206004820152602a60248201527f455243313135353a20696e73756666696369656e742062616c616e636520666f60448201526939103a3930b739b332b960b11b6064820152608490fd5b919082018092116120a357565b9081602091031261026557516001600160e01b0319811681036102655790565b60809060208152602860208201527f455243313135353a204552433131353552656365697665722072656a656374656040820152676420746f6b656e7360c01b60608201520190565b60009060033d1161228257565b905060046000803e60005160e01c90565b600060443d106122f057604051600319913d83016004833e81516001600160401b03918282113d6024840111176122f3578184019485519384116122fb573d850101602084870101116122f357506122f092910160200190611ab3565b90565b949350505050565b50949350505050565b60809060208152603460208201527f455243313135353a207472616e7366657220746f206e6f6e2d455243313135356040820152732932b1b2b4bb32b91034b6b83632b6b2b73a32b960611b60608201520190565b60405190604082018281106001600160401b03821117610e9257604052600182526020820160203682378251156120cd575290565b9081518110156120cd570160200190565b80548210156120cd5760005260206000200190600090565b9190600183016000908282528060205260408220541560001461243b57845494680100000000000000008610156124275783612417612400886001604098999a0185558461239f565b819391549060031b91821b91600019901b19161790565b9055549382526020522055600190565b634e487b7160e01b83526041600452602483fd5b50925050565b906001820190600092818452826020526040842054908115156000146125165760001991808301818111611ef257825490848201918211612502578082036124cd575b505050805480156124b95782019161249c838361239f565b909182549160031b1b191690555582526020526040812055600190565b634e487b7160e01b86526031600452602486fd5b6124ed6124dd612400938661239f565b90549060031b1c9283928661239f565b90558652846020526040862055388080612484565b634e487b7160e01b88526011600452602488fd5b5050505090565b60009081526020906009825260408120906040519080918354928161254185611a79565b918282528782019660019689888216918260001461273e575050600114612700575b5061257092500382611ab3565b80511561264557604051948593836008549161258b83611a79565b9281811690811561262457506001146125c4575b505050506125b56122f094839251938491611ad4565b0103601f198101835282611ab3565b909192969450600882527ff3f7a9fe364faab93b216da50a3214154f22a0a2b415b23a84c8169e8b636ee35b83831061260e575050506122f0946125b5918501019294388061259f565b80548984018901528896509187019181016125f0565b60ff1916888601525050508015150284010191506125b56122f0388061259f565b506040516005549094935084928261265c83611a79565b808652928281169081156126de5750600114612682575b5050506122f092500382611ab3565b600581527f036b6384b5eca791c62761152d0c79bb0604c104a5fb6f4eb0703f3154bb3db095935091905b8183106126c65750506122f09350820101388080612673565b855487840185015294850194869450918301916126ad565b925050506122f094925060ff191682840152151560051b820101388080612673565b915050835281868085208686915b858310612725575050612570935082010138612563565b809192945054838588010152019101879086859361270e565b60ff19168a5261257095151560051b85010192503891506125639050565b3360009081527f64e21244e91af723e1b962171ed4828dcecc0d7b89872e516a5db8266da800006020908152604080832054969897919694959194909260019160ff1615612d7957600b5483810290808204851490151715611e1e573410612d205760018060a01b0392818080803488600e54165af13d15612d1b573d6127e281611b91565b906127ef88519283611ab3565b8152838b3d92013e5b15612ccd5784516001600160401b03948a820186811183821017612cb957875283825261282783600c546121ff565b600c558716968715612c6b5761283c8a612359565b61284584612359565b60ff60065416612c125791868c9594928e948289905b612bb5575b50505050848652600383528886208a875283528886206128818582546121ff565b905589868a5187815286868201527fc3d58168c5ae7397731d063d5bbf3d657854427343f4c083240f7aacaa2d0f628c3392a43b612aae575b505050815260098852838120998051938411612a9a576128da8b54611a79565b601f8111612a54575b508891601f85116001146129c55793808060a0956129a198957f824831c138f8435f85483d6084a074f9e20d5a3ca95b5580c2c8b5165b291d589e9f956129b59c9b99946129ba575b50501b916000199060031b1c19161790555b867f6bb7ff708619ba0610cba295a58592e0451dee2622938c8755667688daf3529b61297d61296c8361251d565b84519182918d83528d830190611af7565b0390a26129898761251d565b928151988998895288015286015260a0850190611af7565b903360608501528382036080850152611af7565b0390a1565b01519250388061292c565b9a939190601f198316858d528a8d209c5b818110612a3f5750927f824831c138f8435f85483d6084a074f9e20d5a3ca95b5580c2c8b5165b291d589b9c6129b59998969360a09693836129a19a9710612a26575b505050811b01905561293e565b015160001960f88460031b161c19169055388080612a19565b838301518e559c85019c928b01928b016129d6565b8b8352898320601f860160051c8101918b8710612a90575b601f0160051c019084905b828110612a855750506128e3565b848155018490612a77565b9091508190612a6c565b634e487b7160e01b82526041600452602482fd5b612aec928851938492839263f23a6e6160e01b978885523360048601528960248601526044850152606484015260a0608484015260a4830190611af7565b0381868b5af1839181612b96575b50612b6f57505081612b0a612275565b6308c379a014612b3b575b612b23575b863889816128ba565b835162461bcd60e51b81528061046060048201612304565b612b43612293565b80612b4e5750612b15565b89610460875192839262461bcd60e51b845260048401526024830190611af7565b6001600160e01b03191614612b1a57835162461bcd60e51b8152806104606004820161222c565b612bae9192508b3d8d116104eb576104dc8183611ab3565b9038612afa565b91939590929496978451831015612c05575090612bf6916007612bd883866120b9565b5191612be484886120b9565b518c52526105f88d8b209182546121ff565b9183918f95938f98979561285b565b9796949281969450612860565b885162461bcd60e51b8152600481018e9052602c60248201527f455243313135355061757361626c653a20746f6b656e207472616e736665722060448201526b1dda1a5b19481c185d5cd95960a21b6064820152608490fd5b865162461bcd60e51b8152600481018c9052602160248201527f455243313135353a206d696e7420746f20746865207a65726f206164647265736044820152607360f81b6064820152608490fd5b634e487b7160e01b85526041600452602485fd5b845162461bcd60e51b8152600481018a9052602160248201527f416c6976656c616e64455243313135353a207472616e73666572206661696c656044820152601960fa1b6064820152608490fd5b6127f8565b835162461bcd60e51b815260048101899052602c60248201527f416c6976656c616e64455243313135353a20696e73756666696369656e74206660448201526b1d5b991cc81d1bc81b5a5b9d60a21b6064820152608490fd5b835162461bcd60e51b815260048101899052602f60248201527f416c6976656c616e64455243313135353a206d7573742068617665206d696e7460448201526e195c881c9bdb19481d1bc81b5a5b9d608a1b6064820152608490fdfea2646970667358221220a7670cdcb3413e7d45bcc7a357506c23bb9e1b416aaed670c6c080413fb2e5f064736f6c634300081300332f8788117e7eff1d82e926ec794901d17c78024a50270940304540a733656f0dd7b6990105719101dabeb77144f2a3385c8033acd3af97e9423a695e81ad1eb5f3f7a9fe364faab93b216da50a3214154f22a0a2b415b23a84c8169e8b636ee31b6847dc741a1b0cd08d278845f9d819d87b734759afb55fe2de5cb82a9ae6728d1108e10bcb7c27dddfc02ed9d693a074039d026cf4ea4240b40f7d581ac802a26469706673582212206659df28331599e990d3ced2a27012b2b84955af9f2e7377951e0664bfe2c44764736f6c63430008130033",
  "linkReferences": {},
  "deployedLinkReferences": {}
}