{
  "_format": "hh-sol-artifact-1",
  "contractName": "AlivelandERC721",
  "sourceName": "contracts/AlivelandERC721.sol",
  "abi": [
    {
      "inputs": [
        {
          "internalType": "string",
          "name": "_name",
          "type": "string"
        },
        {
          "internalType": "string",
          "name": "_symbol",
          "type": "string"
        },
        {
          "internalType": "string",
          "name": "_baseTokenURI",
          "type": "string"
        },
        {
          "internalType": "string",
          "name": "_metadataUrl",
          "type": "string"
        },
        {
          "internalType": "uint256",
          "name": "_mintFee",
          "type": "uint256"
        },
        {
          "internalType": "address payable",
          "name": "_feeRecipient",
          "type": "address"
        },
        {
          "internalType": "address",
          "name": "_deployer",
          "type": "address"
        }
      ],
      "stateMutability": "nonpayable",
      "type": "constructor"
    },
    {
      "anonymous": false,
      "inputs": [
        {
          "indexed": true,
          "internalType": "address",
          "name": "owner",
          "type": "address"
        },
        {
          "indexed": true,
          "internalType": "address",
          "name": "approved",
          "type": "address"
        },
        {
          "indexed": true,
          "internalType": "uint256",
          "name": "tokenId",
          "type": "uint256"
        }
      ],
      "name": "Approval",
      "type": "event"
    },
    {
      "anonymous": false,
      "inputs": [
        {
          "indexed": true,
          "internalType": "address",
          "name": "owner",
          "type": "address"
        },
        {
          "indexed": true,
          "internalType": "address",
          "name": "operator",
          "type": "address"
        },
        {
          "indexed": false,
          "internalType": "bool",
          "name": "approved",
          "type": "bool"
        }
      ],
      "name": "ApprovalForAll",
      "type": "event"
    },
    {
      "anonymous": false,
      "inputs": [
        {
          "indexed": false,
          "internalType": "uint256",
          "name": "_fromTokenId",
          "type": "uint256"
        },
        {
          "indexed": false,
          "internalType": "uint256",
          "name": "_toTokenId",
          "type": "uint256"
        }
      ],
      "name": "BatchMetadataUpdate",
      "type": "event"
    },
    {
      "anonymous": false,
      "inputs": [
        {
          "indexed": false,
          "internalType": "uint256",
          "name": "_tokenId",
          "type": "uint256"
        }
      ],
      "name": "MetadataUpdate",
      "type": "event"
    },
    {
      "anonymous": false,
      "inputs": [
        {
          "indexed": false,
          "internalType": "uint256",
          "name": "tokenId",
          "type": "uint256"
        },
        {
          "indexed": false,
          "internalType": "address",
          "name": "beneficiary",
          "type": "address"
        },
        {
          "indexed": false,
          "internalType": "string",
          "name": "tokenUri",
          "type": "string"
        },
        {
          "indexed": false,
          "internalType": "address",
          "name": "minter",
          "type": "address"
        },
        {
          "indexed": false,
          "internalType": "string",
          "name": "name",
          "type": "string"
        }
      ],
      "name": "Minted",
      "type": "event"
    },
    {
      "anonymous": false,
      "inputs": [
        {
          "indexed": true,
          "internalType": "address",
          "name": "previousOwner",
          "type": "address"
        },
        {
          "indexed": true,
          "internalType": "address",
          "name": "newOwner",
          "type": "address"
        }
      ],
      "name": "OwnershipTransferred",
      "type": "event"
    },
    {
      "anonymous": false,
      "inputs": [
        {
          "indexed": false,
          "internalType": "address",
          "name": "account",
          "type": "address"
        }
      ],
      "name": "Paused",
      "type": "event"
    },
    {
      "anonymous": false,
      "inputs": [
        {
          "indexed": true,
          "internalType": "bytes32",
          "name": "role",
          "type": "bytes32"
        },
        {
          "indexed": true,
          "internalType": "bytes32",
          "name": "previousAdminRole",
          "type": "bytes32"
        },
        {
          "indexed": true,
          "internalType": "bytes32",
          "name": "newAdminRole",
          "type": "bytes32"
        }
      ],
      "name": "RoleAdminChanged",
      "type": "event"
    },
    {
      "anonymous": false,
      "inputs": [
        {
          "indexed": true,
          "internalType": "bytes32",
          "name": "role",
          "type": "bytes32"
        },
        {
          "indexed": true,
          "internalType": "address",
          "name": "account",
          "type": "address"
        },
        {
          "indexed": true,
          "internalType": "address",
          "name": "sender",
          "type": "address"
        }
      ],
      "name": "RoleGranted",
      "type": "event"
    },
    {
      "anonymous": false,
      "inputs": [
        {
          "indexed": true,
          "internalType": "bytes32",
          "name": "role",
          "type": "bytes32"
        },
        {
          "indexed": true,
          "internalType": "address",
          "name": "account",
          "type": "address"
        },
        {
          "indexed": true,
          "internalType": "address",
          "name": "sender",
          "type": "address"
        }
      ],
      "name": "RoleRevoked",
      "type": "event"
    },
    {
      "anonymous": false,
      "inputs": [
        {
          "indexed": true,
          "internalType": "address",
          "name": "from",
          "type": "address"
        },
        {
          "indexed": true,
          "internalType": "address",
          "name": "to",
          "type": "address"
        },
        {
          "indexed": true,
          "internalType": "uint256",
          "name": "tokenId",
          "type": "uint256"
        }
      ],
      "name": "Transfer",
      "type": "event"
    },
    {
      "anonymous": false,
      "inputs": [
        {
          "indexed": false,
          "internalType": "address",
          "name": "account",
          "type": "address"
        }
      ],
      "name": "Unpaused",
      "type": "event"
    },
    {
      "anonymous": false,
      "inputs": [
        {
          "indexed": false,
          "internalType": "address payable",
          "name": "feeRecipient",
          "type": "address"
        }
      ],
      "name": "UpdateFeeRecipient",
      "type": "event"
    },
    {
      "anonymous": false,
      "inputs": [
        {
          "indexed": false,
          "internalType": "uint256",
          "name": "mintFee",
          "type": "uint256"
        }
      ],
      "name": "UpdateMintFee",
      "type": "event"
    },
    {
      "inputs": [],
      "name": "DEFAULT_ADMIN_ROLE",
      "outputs": [
        {
          "internalType": "bytes32",
          "name": "",
          "type": "bytes32"
        }
      ],
      "stateMutability": "view",
      "type": "function"
    },
    {
      "inputs": [],
      "name": "MINTER_ROLE",
      "outputs": [
        {
          "internalType": "bytes32",
          "name": "",
          "type": "bytes32"
        }
      ],
      "stateMutability": "view",
      "type": "function"
    },
    {
      "inputs": [],
      "name": "PAUSER_ROLE",
      "outputs": [
        {
          "internalType": "bytes32",
          "name": "",
          "type": "bytes32"
        }
      ],
      "stateMutability": "view",
      "type": "function"
    },
    {
      "inputs": [
        {
          "internalType": "address",
          "name": "to",
          "type": "address"
        },
        {
          "internalType": "uint256",
          "name": "tokenId",
          "type": "uint256"
        }
      ],
      "name": "approve",
      "outputs": [],
      "stateMutability": "nonpayable",
      "type": "function"
    },
    {
      "inputs": [
        {
          "internalType": "address",
          "name": "owner",
          "type": "address"
        }
      ],
      "name": "balanceOf",
      "outputs": [
        {
          "internalType": "uint256",
          "name": "",
          "type": "uint256"
        }
      ],
      "stateMutability": "view",
      "type": "function"
    },
    {
      "inputs": [
        {
          "internalType": "uint256",
          "name": "tokenId",
          "type": "uint256"
        }
      ],
      "name": "burn",
      "outputs": [],
      "stateMutability": "nonpayable",
      "type": "function"
    },
    {
      "inputs": [],
      "name": "feeRecipient",
      "outputs": [
        {
          "internalType": "address payable",
          "name": "",
          "type": "address"
        }
      ],
      "stateMutability": "view",
      "type": "function"
    },
    {
      "inputs": [
        {
          "internalType": "uint256",
          "name": "tokenId",
          "type": "uint256"
        }
      ],
      "name": "getApproved",
      "outputs": [
        {
          "internalType": "address",
          "name": "",
          "type": "address"
        }
      ],
      "stateMutability": "view",
      "type": "function"
    },
    {
      "inputs": [
        {
          "internalType": "bytes32",
          "name": "role",
          "type": "bytes32"
        }
      ],
      "name": "getRoleAdmin",
      "outputs": [
        {
          "internalType": "bytes32",
          "name": "",
          "type": "bytes32"
        }
      ],
      "stateMutability": "view",
      "type": "function"
    },
    {
      "inputs": [
        {
          "internalType": "bytes32",
          "name": "role",
          "type": "bytes32"
        },
        {
          "internalType": "uint256",
          "name": "index",
          "type": "uint256"
        }
      ],
      "name": "getRoleMember",
      "outputs": [
        {
          "internalType": "address",
          "name": "",
          "type": "address"
        }
      ],
      "stateMutability": "view",
      "type": "function"
    },
    {
      "inputs": [
        {
          "internalType": "bytes32",
          "name": "role",
          "type": "bytes32"
        }
      ],
      "name": "getRoleMemberCount",
      "outputs": [
        {
          "internalType": "uint256",
          "name": "",
          "type": "uint256"
        }
      ],
      "stateMutability": "view",
      "type": "function"
    },
    {
      "inputs": [
        {
          "internalType": "bytes32",
          "name": "role",
          "type": "bytes32"
        },
        {
          "internalType": "address",
          "name": "account",
          "type": "address"
        }
      ],
      "name": "grantRole",
      "outputs": [],
      "stateMutability": "nonpayable",
      "type": "function"
    },
    {
      "inputs": [
        {
          "internalType": "bytes32",
          "name": "role",
          "type": "bytes32"
        },
        {
          "internalType": "address",
          "name": "account",
          "type": "address"
        }
      ],
      "name": "hasRole",
      "outputs": [
        {
          "internalType": "bool",
          "name": "",
          "type": "bool"
        }
      ],
      "stateMutability": "view",
      "type": "function"
    },
    {
      "inputs": [
        {
          "internalType": "address",
          "name": "owner",
          "type": "address"
        },
        {
          "internalType": "address",
          "name": "operator",
          "type": "address"
        }
      ],
      "name": "isApprovedForAll",
      "outputs": [
        {
          "internalType": "bool",
          "name": "",
          "type": "bool"
        }
      ],
      "stateMutability": "view",
      "type": "function"
    },
    {
      "inputs": [],
      "name": "metadataUrl",
      "outputs": [
        {
          "internalType": "string",
          "name": "",
          "type": "string"
        }
      ],
      "stateMutability": "view",
      "type": "function"
    },
    {
      "inputs": [
        {
          "internalType": "address",
          "name": "_to",
          "type": "address"
        },
        {
          "internalType": "string",
          "name": "_cid",
          "type": "string"
        },
        {
          "internalType": "uint96",
          "name": "_royalty",
          "type": "uint96"
        },
        {
          "internalType": "string",
          "name": "_name",
          "type": "string"
        }
      ],
      "name": "mint",
      "outputs": [
        {
          "internalType": "uint256",
          "name": "",
          "type": "uint256"
        }
      ],
      "stateMutability": "payable",
      "type": "function"
    },
    {
      "inputs": [],
      "name": "mintFee",
      "outputs": [
        {
          "internalType": "uint256",
          "name": "",
          "type": "uint256"
        }
      ],
      "stateMutability": "view",
      "type": "function"
    },
    {
      "inputs": [],
      "name": "name",
      "outputs": [
        {
          "internalType": "string",
          "name": "",
          "type": "string"
        }
      ],
      "stateMutability": "view",
      "type": "function"
    },
    {
      "inputs": [],
      "name": "owner",
      "outputs": [
        {
          "internalType": "address",
          "name": "",
          "type": "address"
        }
      ],
      "stateMutability": "view",
      "type": "function"
    },
    {
      "inputs": [
        {
          "internalType": "uint256",
          "name": "tokenId",
          "type": "uint256"
        }
      ],
      "name": "ownerOf",
      "outputs": [
        {
          "internalType": "address",
          "name": "",
          "type": "address"
        }
      ],
      "stateMutability": "view",
      "type": "function"
    },
    {
      "inputs": [],
      "name": "pause",
      "outputs": [],
      "stateMutability": "nonpayable",
      "type": "function"
    },
    {
      "inputs": [],
      "name": "paused",
      "outputs": [
        {
          "internalType": "bool",
          "name": "",
          "type": "bool"
        }
      ],
      "stateMutability": "view",
      "type": "function"
    },
    {
      "inputs": [],
      "name": "renounceOwnership",
      "outputs": [],
      "stateMutability": "nonpayable",
      "type": "function"
    },
    {
      "inputs": [
        {
          "internalType": "bytes32",
          "name": "role",
          "type": "bytes32"
        },
        {
          "internalType": "address",
          "name": "account",
          "type": "address"
        }
      ],
      "name": "renounceRole",
      "outputs": [],
      "stateMutability": "nonpayable",
      "type": "function"
    },
    {
      "inputs": [
        {
          "internalType": "bytes32",
          "name": "role",
          "type": "bytes32"
        },
        {
          "internalType": "address",
          "name": "account",
          "type": "address"
        }
      ],
      "name": "revokeRole",
      "outputs": [],
      "stateMutability": "nonpayable",
      "type": "function"
    },
    {
      "inputs": [
        {
          "internalType": "uint256",
          "name": "tokenId",
          "type": "uint256"
        },
        {
          "internalType": "uint256",
          "name": "salePrice",
          "type": "uint256"
        }
      ],
      "name": "royaltyInfo",
      "outputs": [
        {
          "internalType": "address",
          "name": "",
          "type": "address"
        },
        {
          "internalType": "uint256",
          "name": "",
          "type": "uint256"
        }
      ],
      "stateMutability": "view",
      "type": "function"
    },
    {
      "inputs": [
        {
          "internalType": "address",
          "name": "from",
          "type": "address"
        },
        {
          "internalType": "address",
          "name": "to",
          "type": "address"
        },
        {
          "internalType": "uint256",
          "name": "tokenId",
          "type": "uint256"
        }
      ],
      "name": "safeTransferFrom",
      "outputs": [],
      "stateMutability": "nonpayable",
      "type": "function"
    },
    {
      "inputs": [
        {
          "internalType": "address",
          "name": "from",
          "type": "address"
        },
        {
          "internalType": "address",
          "name": "to",
          "type": "address"
        },
        {
          "internalType": "uint256",
          "name": "tokenId",
          "type": "uint256"
        },
        {
          "internalType": "bytes",
          "name": "data",
          "type": "bytes"
        }
      ],
      "name": "safeTransferFrom",
      "outputs": [],
      "stateMutability": "nonpayable",
      "type": "function"
    },
    {
      "inputs": [
        {
          "internalType": "address",
          "name": "operator",
          "type": "address"
        },
        {
          "internalType": "bool",
          "name": "approved",
          "type": "bool"
        }
      ],
      "name": "setApprovalForAll",
      "outputs": [],
      "stateMutability": "nonpayable",
      "type": "function"
    },
    {
      "inputs": [
        {
          "internalType": "bytes4",
          "name": "_interfaceId",
          "type": "bytes4"
        }
      ],
      "name": "supportsInterface",
      "outputs": [
        {
          "internalType": "bool",
          "name": "",
          "type": "bool"
        }
      ],
      "stateMutability": "view",
      "type": "function"
    },
    {
      "inputs": [],
      "name": "symbol",
      "outputs": [
        {
          "internalType": "string",
          "name": "",
          "type": "string"
        }
      ],
      "stateMutability": "view",
      "type": "function"
    },
    {
      "inputs": [
        {
          "internalType": "uint256",
          "name": "index",
          "type": "uint256"
        }
      ],
      "name": "tokenByIndex",
      "outputs": [
        {
          "internalType": "uint256",
          "name": "",
          "type": "uint256"
        }
      ],
      "stateMutability": "view",
      "type": "function"
    },
    {
      "inputs": [
        {
          "internalType": "address",
          "name": "owner",
          "type": "address"
        },
        {
          "internalType": "uint256",
          "name": "index",
          "type": "uint256"
        }
      ],
      "name": "tokenOfOwnerByIndex",
      "outputs": [
        {
          "internalType": "uint256",
          "name": "",
          "type": "uint256"
        }
      ],
      "stateMutability": "view",
      "type": "function"
    },
    {
      "inputs": [
        {
          "internalType": "uint256",
          "name": "_tokenId",
          "type": "uint256"
        }
      ],
      "name": "tokenURI",
      "outputs": [
        {
          "internalType": "string",
          "name": "",
          "type": "string"
        }
      ],
      "stateMutability": "view",
      "type": "function"
    },
    {
      "inputs": [],
      "name": "totalSupply",
      "outputs": [
        {
          "internalType": "uint256",
          "name": "",
          "type": "uint256"
        }
      ],
      "stateMutability": "view",
      "type": "function"
    },
    {
      "inputs": [
        {
          "internalType": "address",
          "name": "from",
          "type": "address"
        },
        {
          "internalType": "address",
          "name": "to",
          "type": "address"
        },
        {
          "internalType": "uint256",
          "name": "tokenId",
          "type": "uint256"
        }
      ],
      "name": "transferFrom",
      "outputs": [],
      "stateMutability": "nonpayable",
      "type": "function"
    },
    {
      "inputs": [
        {
          "internalType": "address",
          "name": "newOwner",
          "type": "address"
        }
      ],
      "name": "transferOwnership",
      "outputs": [],
      "stateMutability": "nonpayable",
      "type": "function"
    },
    {
      "inputs": [],
      "name": "unpause",
      "outputs": [],
      "stateMutability": "nonpayable",
      "type": "function"
    },
    {
      "inputs": [
        {
          "internalType": "address payable",
          "name": "_feeRecipient",
          "type": "address"
        }
      ],
      "name": "updateFeeRecipient",
      "outputs": [],
      "stateMutability": "nonpayable",
      "type": "function"
    },
    {
      "inputs": [
        {
          "internalType": "string",
          "name": "_url",
          "type": "string"
        }
      ],
      "name": "updateMetadataUrl",
      "outputs": [],
      "stateMutability": "nonpayable",
      "type": "function"
    },
    {
      "inputs": [
        {
          "internalType": "uint256",
          "name": "_mintFee",
          "type": "uint256"
        }
      ],
      "name": "updateMintFee",
      "outputs": [],
      "stateMutability": "nonpayable",
      "type": "function"
    }
  ],
  "bytecode": "0x60406080815234620008475762003b3790813803806200001f816200084c565b938439820160e083820312620008475782516001600160401b0391908281116200084757816200005191860162000872565b90602090818601518481116200084757816200006f91880162000872565b93858701518181116200084757826200008a91890162000872565b916060880151908282116200084757620000a691890162000872565b608088015160a08901516001600160a01b03998a8216939291849003620008475760c00151998a1697888b036200084757875193858511620008315760049283549560019a8b88811c9816801562000826575b8b891014620008115781908b601f998a8111620007b8575b50508b9089831160011462000747576000926200073b575b5050600019600383901b1c1916908b1b1784555b8251878111620007265760059384548c81811c911680156200071b575b8c8210146200061257908b828a859411620006c4575b50508b90898311600114620006535760009262000647575b5050600019600383901b1c1916908b1b1783555b60ff199788600f5416600f55620001b333620008e4565b80519088821162000632576011548c81811c9116801562000627575b8c8210146200061257908b828a859411620005ba575b50508b90898311600114620005455760009262000539575b5050600019600383901b1c1916908b1b176011555b601355601480546001600160a01b03191691909117905582519485116200052457601254918883811c9316801562000519575b88841014620005045750838211620004ba575b505084918311600114620004465791806200037998999262000297946000926200043a575b5050600019600383901b1c191690861b17601255620008e4565b60008052600082528560002084600052825260ff86600020541615620003ff575b60008052828252620002ce848760002062000940565b507f9f2df0fed2c77648de5860a4cc508cd0818c85b8b8a1ab4ceeef8d981c8956a680600052600083528660002085600052835260ff87600020541615620003c4575b60005282825262000326848760002062000940565b507f65d7a28e3265b37a6474929f336521b332c1681b933f6cb9f3376673440d862a9081600052600083528660002085600052835260ff8760002054161562000388575b50600052528260002062000940565b50516131499081620009ce8239f35b81600052600083528660002085600052835283876000209182541617905533848260008051602062003b17833981519152600080a4386200036a565b80600052600083528660002085600052835286600020848382541617905533858260008051602062003b17833981519152600080a462000311565b6000805260008252856000208460005282528560002083828254161790553384600060008051602062003b178339815191528180a4620002b8565b0151905038806200027d565b90601f198316916012600052856000209260005b818110620004a4575092879285926200029796620003799c9d96106200048a575b505050811b01601255620008e4565b015160001960f88460031b161c191690553880806200047b565b828401518555938801939287019287016200045a565b6012600052866000209084808701821c830193898810620004fa575b01901c019087905b828110620004ed575062000258565b60008155018790620004de565b93508293620004d6565b602290634e487b7160e01b6000525260246000fd5b92607f169262000245565b604182634e487b7160e01b6000525260246000fd5b015190503880620001fd565b8d9350908c91601f198416601160005283600020936000905b8282106200059957505084116200057f575b505050811b0160115562000212565b015160001960f88460031b161c1916905538808062000570565b91929395968291958786015181550195019301908f95949392918f6200055e565b909192506011600052898260002091818601891c830193861062000608575b918f918695949301891c01915b828110620005f857508d9150620001e5565b600081558594508f9101620005e6565b92508192620005d9565b602287634e487b7160e01b6000525260246000fd5b90607f1690620001cf565b604186634e487b7160e01b6000525260246000fd5b01519050388062000188565b60008781528d81208f9550929190601f198516908f5b828210620006a3575050841162000689575b505050811b0183556200019c565b015160001960f88460031b161c191690553880806200067b565b91929395968291958786015181550195019301908f95949392918f62000669565b9091925086600052898260002091818601891c830193861062000711575b918f918695949301891c01915b8281106200070157508d915062000170565b600081558594508f9101620006ef565b92508192620006e2565b90607f16906200015a565b604185634e487b7160e01b6000525260246000fd5b01519050388062000129565b60008881528d81208f9550929190601f198516908f5b8282106200079757505084116200077d575b505050811b0184556200013d565b015160001960f88460031b161c191690553880806200076f565b91929395968291958786015181550195019301908f95949392918f6200075d565b909192508760005289826000209181860160051c830193861062000807575b918f91869594930160051c01915b828110620007f757508d915062000111565b600081558594508f9101620007e5565b92508192620007d7565b602286634e487b7160e01b6000525260246000fd5b97607f1697620000f9565b634e487b7160e01b600052604160045260246000fd5b600080fd5b6040519190601f01601f191682016001600160401b038111838210176200083157604052565b919080601f84011215620008475782516001600160401b0381116200083157602090620008a8601f8201601f191683016200084c565b92818452828287010111620008475760005b818110620008d057508260009394955001015290565b8581018301518482018401528201620008ba565b600f8054610100600160a81b03198116600884811b610100600160a81b0316919091179092556001600160a01b0392831692911c167f8be0079c531659141344cd1fd0a4f28419497f9722a3daafe3b4186f6b6457e0600080a3565b91906001830160009082825280602052604082205415600014620009c75784549468010000000000000000861015620009b357600186018082558610156200099f57836040949596828552602085200155549382526020522055600190565b634e487b7160e01b83526032600452602483fd5b634e487b7160e01b83526041600452602483fd5b5092505056fe608080604052600436101561001357600080fd5b60003560e01c90816301ffc9a714611da45750806306fdde0314611cfe578063081812fc14611ce0578063095ea7b314611b6657806313966db514611b4857806318160ddd14611b2a5780631df083aa1461142d57806323b872dd14611409578063248a9ca3146113da5780632a55205a1461132e5780632f2ff15d146112695780632f745c59146111b757806336568abe146111255780633f4ba83a1461100357806342842e0e14610fdb57806342966c6814610ca45780634690484014610c7b5780634f6ccce714610bea5780635c975abb14610bc75780636352211e14610b9757806370a0823114610b6c5780637132048c146109e7578063715018a61461098657806384017e521461093a5780638456cb591461081b5780638da5cb5b146107ee5780639010d07c146107a757806391d148541461075a57806395d89b41146106b4578063a217fddf14610698578063a22cb465146105c6578063b88d4fde14610566578063c87b56dd14610547578063ca15c8731461051b578063cd29c71a14610435578063d5391393146103fa578063d547741f146103b9578063e63ab1e91461037e578063e985e9c514610328578063f160d369146102bb5763f2fde38b146101e257600080fd5b346102b65760203660031901126102b6576101fb611ed9565b6102036124b9565b6001600160a01b0381811691821561026257600f8054610100600160a81b03198116600893841b610100600160a81b031617909155901c167f8be0079c531659141344cd1fd0a4f28419497f9722a3daafe3b4186f6b6457e0600080a3005b60405162461bcd60e51b815260206004820152602660248201527f4f776e61626c653a206e6577206f776e657220697320746865207a65726f206160448201526564647265737360d01b6064820152608490fd5b600080fd5b346102b65760203660031901126102b6576004356001600160a01b038116908190036102b65760207f6632de8ab33c46549f7bb29f647ea0d751157b25fe6a14b1bcc7527cdfbeb79c9161030d6124b9565b601480546001600160a01b03191682179055604051908152a1005b346102b65760403660031901126102b657610341611ed9565b610349611eef565b9060018060a01b03809116600052600960205260406000209116600052602052602060ff604060002054166040519015158152f35b346102b65760003660031901126102b65760206040517f65d7a28e3265b37a6474929f336521b332c1681b933f6cb9f3376673440d862a8152f35b346102b65760403660031901126102b6576103f86004356103d8611eef565b908060005260006020526103f36001604060002001546120fd565b612432565b005b346102b65760003660031901126102b65760206040517f9f2df0fed2c77648de5860a4cc508cd0818c85b8b8a1ab4ceeef8d981c8956a68152f35b346102b65760003660031901126102b657604051600060125461045781612005565b808452906001908181169081156104f45750600114610499575b6104958461048181860382611f3d565b604051918291602083526020830190611eb4565b0390f35b6012600090815292507fbb8a6a4669ba250d26cd7a459eca9d215f8307e33aebe50379bc5a3617ec34445b8284106104dc57505050810160200161048182610471565b805460208587018101919091529093019281016104c4565b60ff191660208087019190915292151560051b850190920192506104819150839050610471565b346102b65760203660031901126102b65760043560005260016020526020604060002054604051908152f35b346102b65760203660031901126102b657610495610481600435612dbc565b346102b65760803660031901126102b65761057f611ed9565b610587611eef565b6064359167ffffffffffffffff83116102b657366023840112156102b6576105bc6103f8933690602481600401359101611f7b565b916044359161269a565b346102b65760403660031901126102b6576105df611ed9565b602435908115158092036102b6576001600160a01b03169033821461065357336000526009602052604060002082600052602052604060002060ff1981541660ff83161790556040519081527f17307eab39ab6107e8899845ad3d59bd9653f200f220920489ca2b5937696c3160203392a3005b60405162461bcd60e51b815260206004820152601960248201527f4552433732313a20617070726f766520746f2063616c6c6572000000000000006044820152606490fd5b346102b65760003660031901126102b657602060405160008152f35b346102b65760003660031901126102b65760405160006005546106d681612005565b808452906001908181169081156104f457506001146106ff576104958461048181860382611f3d565b6005600090815292507f036b6384b5eca791c62761152d0c79bb0604c104a5fb6f4eb0703f3154bb3db05b82841061074257505050810160200161048182610471565b8054602085870181019190915290930192810161072a565b346102b65760403660031901126102b657610773611eef565b600435600052600060205260406000209060018060a01b0316600052602052602060ff604060002054166040519015158152f35b346102b65760403660031901126102b657600435600052600160205260206107d56024356040600020612c32565b905460405160039290921b1c6001600160a01b03168152f35b346102b65760003660031901126102b657600f5460405160089190911c6001600160a01b03168152602090f35b346102b65760003660031901126102b6573360009081527ff7c9542c591017a21c74b6f3fab6263c7952fc0aaf9db4c22a2a04ddc7f8674f602052604090205460ff16156108dd57600f5460ff81166108a55760019060ff191617600f557f62e78cea01bee320cd4e420270b5ea74000d11b0c9f74754ebdbfc544b05a2586020604051338152a1005b60405162461bcd60e51b815260206004820152601060248201526f14185d5cd8589b194e881c185d5cd95960821b6044820152606490fd5b60405162461bcd60e51b815260206004820152602f60248201527f416c6976656c616e644552433732313a206d757374206861766520706175736560448201526e7220726f6c6520746f20706175736560881b6064820152608490fd5b346102b65760203660031901126102b6577f3dfa9bc6998df6014b8b7d900ecd895dc745ce9f2df927632406ec853fcf543560206004356109796124b9565b80601355604051908152a1005b346102b65760003660031901126102b65761099f6124b9565b600f8054610100600160a81b0319811690915560009060081c6001600160a01b03167f8be0079c531659141344cd1fd0a4f28419497f9722a3daafe3b4186f6b6457e08280a3005b346102b6576020806003193601126102b65767ffffffffffffffff6004358181116102b657610a1a903690600401611fb2565b91610a236124b9565b8251918211610b5657610a37601254612005565b601f8111610afd575b5080601f8311600114610a7c57508192600092610a71575b5050600019600383901b1c191660019190911b17601255005b015190508280610a58565b90601f1983169360126000527fbb8a6a4669ba250d26cd7a459eca9d215f8307e33aebe50379bc5a3617ec3444926000905b868210610ae55750508360019510610acc575b505050811b01601255005b015160001960f88460031b161c19169055828080610ac1565b80600185968294968601518155019501930190610aae565b610b469060126000527fbb8a6a4669ba250d26cd7a459eca9d215f8307e33aebe50379bc5a3617ec3444601f850160051c810191848610610b4c575b601f0160051c0190612da5565b83610a40565b9091508190610b39565b634e487b7160e01b600052604160045260246000fd5b346102b65760203660031901126102b6576020610b8f610b8a611ed9565b612514565b604051908152f35b346102b65760203660031901126102b6576020610bb56004356125d7565b6040516001600160a01b039091168152f35b346102b65760003660031901126102b657602060ff600f54166040519015158152f35b346102b65760203660031901126102b657600435600c54811015610c2157610c13602091612be5565b90546040519160031b1c8152f35b60405162461bcd60e51b815260206004820152602c60248201527f455243373231456e756d657261626c653a20676c6f62616c20696e646578206f60448201526b7574206f6620626f756e647360a01b6064820152608490fd5b346102b65760003660031901126102b6576014546040516001600160a01b039091168152602090f35b346102b6576020806003193601126102b65760043590610ccc610cc78333612725565b612638565b610cd5826125d7565b6001600160a01b0392908381169081610f3f575050600c5481600052600d835280604060002055600160401b811015610b5657610d33610d1c826001859401600c55612be5565b819391549060031b91821b91600019901b19161790565b90555b600c546000199390848101908111610f295782600052600d8452610d5f60406000205491612be5565b90549060031b1c80610d73610d1c84612be5565b9055600052600d84526040600020558160005260006040812055600c548015610f13578401610da181612be5565b8682549160031b1b19169055600c5560ff600f5416610eba5760006003948392610dca846125d7565b908484526008875260408420916001600160601b0360a01b928381541690551691828452600787526040842090815401905583835260068652604083209081541690557fddf252ad1be2c89b69c2b068fc378daa952ba7f163c4a11628f55a4df523b3ef8280a4600e8252610e43604060002054612005565b610e58575b6000525260006040812055600080f35b80600052600e82526040600020610e6f8154612005565b9081610e7d575b5050610e48565b81601f60009311600114610e955750555b8380610e76565b908083918252610eb3601f878420940160051c840160018501612da5565b5555610e8e565b60405162461bcd60e51b815260048101849052602b60248201527f4552433732315061757361626c653a20746f6b656e207472616e73666572207760448201526a1a1a5b19481c185d5cd95960aa1b6064820152608490fd5b634e487b7160e01b600052603160045260246000fd5b634e487b7160e01b600052601160045260246000fd5b610f4890612514565b600019810191908211610f295782600052600b8452604060002054828103610f95575b508260005260006040812055600052600a8352604060002090600052825260006040812055610d36565b81600052600a8552604060002083600052855260406000205482600052600a8652604060002082600052865280604060002055600052600b855260406000205585610f6b565b346102b6576103f8610fec36611fd0565b9060405192610ffa84611f21565b6000845261269a565b346102b65760003660031901126102b6573360009081527ff7c9542c591017a21c74b6f3fab6263c7952fc0aaf9db4c22a2a04ddc7f8674f602052604090205460ff16156110c657600f5460ff81161561108a5760ff1916600f557f5db9ee0a495bf2e6ff9c91a7834c1ba4fdd244a5e8aa4e537bd38aeae4b073aa6020604051338152a1005b60405162461bcd60e51b815260206004820152601460248201527314185d5cd8589b194e881b9bdd081c185d5cd95960621b6044820152606490fd5b60405162461bcd60e51b815260206004820152603160248201527f416c6976656c616e644552433732313a206d75737420686176652070617573656044820152707220726f6c6520746f20756e706175736560781b6064820152608490fd5b346102b65760403660031901126102b65761113e611eef565b336001600160a01b0382160361115a576103f890600435612432565b60405162461bcd60e51b815260206004820152602f60248201527f416363657373436f6e74726f6c3a2063616e206f6e6c792072656e6f756e636560448201526e103937b632b9903337b91039b2b63360891b6064820152608490fd5b346102b65760403660031901126102b6576111d0611ed9565b602435906111dd81612514565b8210156112105760018060a01b0316600052600a6020526040600020906000526020526020604060002054604051908152f35b60405162461bcd60e51b815260206004820152602b60248201527f455243373231456e756d657261626c653a206f776e657220696e646578206f7560448201526a74206f6620626f756e647360a81b6064820152608490fd5b346102b65760403660031901126102b6576103f8600435600161128a611eef565b9180600052602090600082526112a683604060002001546120fd565b8060005260008252604060002093838060a01b03169384600052825260ff60406000205416156112df575b600052526040600020612c5b565b8060005260008252604060002084600052825260406000208360ff198254161790553384827f2f8788117e7eff1d82e926ec794901d17c78024a50270940304540a733656f0d600080a46112d1565b346102b65760403660031901126102b65760243560043560005260036020526040600020906040519161136083611f05565b546001600160a01b0380821680855260a09290921c60208501529290156113b8575b6001600160601b0360208201511691828102928184041490151715610f2957604092612710915116918351928352046020820152f35b506040516113c581611f05565b600254838116825260a01c6020820152611382565b346102b65760203660031901126102b65760043560005260006020526020600160406000200154604051908152f35b346102b6576103f861141a36611fd0565b91611428610cc78433612725565b6127ed565b60803660031901126102b657611441611ed9565b67ffffffffffffffff602435116102b6573660236024350112156102b65767ffffffffffffffff60243560040135116102b65736602480356004013581350101116102b657604435906001600160601b03821682036102b657606490813567ffffffffffffffff81116102b6576114bc903690600401611fb2565b3360009081527f0781d7cac9c378efa22a7481e4d4d29704a680ddf504b3bc50b517700ee11e6c602052604090205490939060ff1615611acf576013543410611a7757601054926001840160105560008080803460018060a01b03601454165af1611525612a6f565b5015611a35576001600160a01b038316156119f35760008481526006602052604090205461155f906001600160a01b031615155b156130c7565b600c5484600052600d60205280604060002055600160401b811015610b5657611592610d1c826001889401600c55612be5565b905561159d83612514565b60018060a01b038416600052600a6020526040600020816000526020528460406000205584600052600b60205260406000205560ff600f541661199b576000848152600660205260409020546115fd906001600160a01b03161515611559565b6001600160a01b0383166000818152600760209081526040808320805460010190558783526006909152812080546001600160a01b031916831790558591907fddf252ad1be2c89b69c2b068fc378daa952ba7f163c4a11628f55a4df523b3ef8180a461167536602435600401356024803501611f7b565b6000858152600660205260409020546001600160a01b0316156119405784600052600e60205260406000209080519067ffffffffffffffff8211610b565781906116bf8454612005565b601f811161190e575b50602090601f83116001146118a257600092611897575b50508160011b916000199060031b1c19161790555b7ff8e1a15aba9398e019f0b49df1a4fde98ee17ae345cb5f6b5e2c27f5033e8ce76020604051868152a16127106001600160601b038316116118405733156117fe5750927f824831c138f8435f85483d6084a074f9e20d5a3ca95b5580c2c8b5165b291d58916020946040519061176a82611f05565b3382526001600160601b0316868201908152600086815260038852604090209151905160a01b6001600160a01b0319166001600160a01b03919091161790556117f36117b585612dbc565b926117df60405194859488865260018060a01b03168986015260a0604086015260a0850190611eb4565b903360608501528382036080850152611eb4565b0390a1604051908152f35b60405162461bcd60e51b815260206004820152601b60248201527f455243323938313a20496e76616c696420706172616d657465727300000000006044820152fd5b608490692073616c65507269636560b01b6040519162461bcd60e51b835260206004840152602a60248401527f455243323938313a20726f79616c7479206665652077696c6c206578636565646044840152820152fd5b0151905088806116df565b9250836000526020600020906000935b601f19841685106118f3576001945083601f198116106118da575b505050811b0190556116f4565b015160001960f88460031b161c191690558880806118cd565b818101518355602094850194600190930192909101906118b2565b61193a90856000526020600020601f850160051c81019160208610610b4c57601f0160051c0190612da5565b896116c8565b60405162461bcd60e51b815260206004820152602e60248201527f45524337323155524953746f726167653a2055524920736574206f66206e6f6e60448201526d32bc34b9ba32b73a103a37b5b2b760911b81840152608490fd5b6084906a1a1a5b19481c185d5cd95960aa1b6040519162461bcd60e51b835260206004840152602b60248401527f4552433732315061757361626c653a20746f6b656e207472616e7366657220776044840152820152fd5b60405162461bcd60e51b815260206004820181905260248201527f4552433732313a206d696e7420746f20746865207a65726f20616464726573736044820152fd5b60405162461bcd60e51b815260206004820181905260248201527f416c6976656c616e644552433732313a207472616e73666572206661696c65646044820152fd5b60405162461bcd60e51b815260206004820152602b60248201527f416c6976656c616e644552433732313a20696e73756666696369656e7420667560448201526a1b991cc81d1bc81b5a5b9d60aa1b81850152608490fd5b60405162461bcd60e51b815260206004820152602e60248201527f416c6976656c616e644552433732313a206d7573742068617665206d696e746560448201526d1c881c9bdb19481d1bc81b5a5b9d60921b81850152608490fd5b346102b65760003660031901126102b6576020600c54604051908152f35b346102b65760003660031901126102b6576020601354604051908152f35b346102b65760403660031901126102b657611b7f611ed9565b602435906001600160a01b038080611b96856125d7565b16921691808314611c9157803314908115611c6c575b5015611c0157600083815260086020526040902080546001600160a01b03191683179055611bd9836125d7565b167f8c5be1e5ebec7d5bd14f71427d1e84f3dd0314c0f7b2291e5b200ac8c7c3b925600080a4005b60405162461bcd60e51b815260206004820152603d60248201527f4552433732313a20617070726f76652063616c6c6572206973206e6f7420746f60448201527f6b656e206f776e6572206f7220617070726f76656420666f7220616c6c0000006064820152608490fd5b9050600052600960205260406000203360005260205260ff6040600020541684611bac565b60405162461bcd60e51b815260206004820152602160248201527f4552433732313a20617070726f76616c20746f2063757272656e74206f776e656044820152603960f91b6064820152608490fd5b346102b65760203660031901126102b6576020610bb56004356125fa565b346102b65760003660031901126102b6576040516000600454611d2081612005565b808452906001908181169081156104f45750600114611d49576104958461048181860382611f3d565b6004600090815292507f8a35acfbc15ff81a39ae7d344fd709f28e8600b4aa8c65c6b64bfe7fe36bd19b5b828410611d8c57505050810160200161048182610471565b80546020858701810191909152909301928101611d74565b346102b65760203660031901126102b6576004359063ffffffff60e01b82168092036102b657602091632483248360e11b8114908115611de6575b5015158152f35b63780e9d6360e01b811491508115611e00575b5083611ddf565b6380ac58cd60e01b811491508115611e80575b8115611e21575b5083611df9565b63152a902d60e11b811491508115611e3b575b5083611e1a565b635a05180f60e01b811491508115611e55575b5083611e34565b637965db0b60e01b811491508115611e6f575b5083611e4e565b6301ffc9a760e01b14905083611e68565b635b5e139f60e01b81149150611e13565b60005b838110611ea45750506000910152565b8181015183820152602001611e94565b90602091611ecd81518092818552858086019101611e91565b601f01601f1916010190565b600435906001600160a01b03821682036102b657565b602435906001600160a01b03821682036102b657565b6040810190811067ffffffffffffffff821117610b5657604052565b6020810190811067ffffffffffffffff821117610b5657604052565b90601f8019910116810190811067ffffffffffffffff821117610b5657604052565b67ffffffffffffffff8111610b5657601f01601f191660200190565b929192611f8782611f5f565b91611f956040519384611f3d565b8294818452818301116102b6578281602093846000960137010152565b9080601f830112156102b657816020611fcd93359101611f7b565b90565b60609060031901126102b6576001600160a01b039060043582811681036102b6579160243590811681036102b6579060443590565b90600182811c92168015612035575b602083101461201f57565b634e487b7160e01b600052602260045260246000fd5b91607f1691612014565b604051906000826011549161205383612005565b808352926001908181169081156120db575060011461207c575b5061207a92500383611f3d565b565b6011600090815291507f31ecc21a745e3968a04e9570e4425bc18fa8019c68028196b546d1669c200c685b8483106120c0575061207a93505081016020013861206d565b81935090816020925483858a010152019101909185926120a7565b90506020925061207a94915060ff191682840152151560051b8201013861206d565b600090808252602090828252604092838120338252835260ff8482205416156121265750505050565b83519167ffffffffffffffff9033606085018381118682101761241e578752602a8552858501918736843785511561240a57603083538551916001928310156123f6576078602188015360295b83811161238c575061234a579087519360808501908582109082111761233657885260428452868401946060368737845115612322576030865384518210156123225790607860218601536041915b8183116122b4575050506122725761226e9386936122529361224360489461221a9a519a8b957f416363657373436f6e74726f6c3a206163636f756e74200000000000000000008c8801525180926037880190611e91565b8401917001034b99036b4b9b9b4b733903937b6329607d1b603784015251809386840190611e91565b01036028810187520185611f3d565b5192839262461bcd60e51b845260048401526024830190611eb4565b0390fd5b60648587519062461bcd60e51b825280600483015260248201527f537472696e67733a20686578206c656e67746820696e73756666696369656e746044820152fd5b909192600f8116601081101561230e576f181899199a1a9b1b9c1cb0b131b232b360811b901a6122e48588612c4a565b5360041c9280156122fa576000190191906121c2565b634e487b7160e01b82526011600452602482fd5b634e487b7160e01b83526032600452602483fd5b634e487b7160e01b81526032600452602490fd5b634e487b7160e01b86526041600452602486fd5b60648789519062461bcd60e51b825280600483015260248201527f537472696e67733a20686578206c656e67746820696e73756666696369656e746044820152fd5b90600f811660108110156123e2576f181899199a1a9b1b9c1cb0b131b232b360811b901a6123ba838a612c4a565b5360041c9080156123ce5760001901612173565b634e487b7160e01b87526011600452602487fd5b634e487b7160e01b88526032600452602488fd5b634e487b7160e01b86526032600452602486fd5b634e487b7160e01b85526032600452602485fd5b634e487b7160e01b85526041600452602485fd5b90604061246f92600090808252816020528282209360018060a01b03169384835260205260ff8383205416612472575b8152600160205220612cc9565b50565b8082528160205282822084835260205282822060ff1981541690553384827ff6391f5c32d9c69d2a47ea670b442974b53935d1edc7fd64eb21e047a839171b8580a4612462565b600f5460081c6001600160a01b031633036124d057565b606460405162461bcd60e51b815260206004820152602060248201527f4f776e61626c653a2063616c6c6572206973206e6f7420746865206f776e65726044820152fd5b6001600160a01b0316801561253457600052600760205260406000205490565b60405162461bcd60e51b815260206004820152602960248201527f4552433732313a2061646472657373207a65726f206973206e6f7420612076616044820152683634b21037bbb732b960b91b6064820152608490fd5b1561259257565b60405162461bcd60e51b815260206004820152601860248201527f4552433732313a20696e76616c696420746f6b656e20494400000000000000006044820152606490fd5b6000908152600660205260409020546001600160a01b0316611fcd81151561258b565b60008181526006602052604090205461261d906001600160a01b0316151561258b565b6000908152600860205260409020546001600160a01b031690565b1561263f57565b60405162461bcd60e51b815260206004820152602d60248201527f4552433732313a2063616c6c6572206973206e6f7420746f6b656e206f776e6560448201526c1c881bdc88185c1c1c9bdd9959609a1b6064820152608490fd5b906126be9392916126ae610cc78433612725565b6126b98383836127ed565b612a9f565b156126c557565b60405162461bcd60e51b815260206004820152603260248201527f4552433732313a207472616e7366657220746f206e6f6e20455243373231526560448201527131b2b4bb32b91034b6b83632b6b2b73a32b960711b6064820152608490fd5b906001600160a01b038080612739846125d7565b1693169183831493841561276c575b508315612756575b50505090565b612762919293506125fa565b1614388080612750565b909350600052600960205260406000208260005260205260ff604060002054169238612748565b1561279a57565b60405162461bcd60e51b815260206004820152602560248201527f4552433732313a207472616e736665722066726f6d20696e636f72726563742060448201526437bbb732b960d91b6064820152608490fd5b90612813906127fb846125d7565b6001600160a01b038481169390929183168414612793565b818116938415612a1e57836129885750600c5485600052600d60205280604060002055600160401b811015610b5657612856610d1c826001899401600c55612be5565b90555b828403612955575b5060ff600f54166128fc57816128819161287a866125d7565b1614612793565b7fddf252ad1be2c89b69c2b068fc378daa952ba7f163c4a11628f55a4df523b3ef60008481526008602052604081206001600160601b0360a01b9081815416905583825260076020526040822060001981540190558482526040822060018154019055858252600660205284604083209182541617905580a4565b60405162461bcd60e51b815260206004820152602b60248201527f4552433732315061757361626c653a20746f6b656e207472616e73666572207760448201526a1a1a5b19481c185d5cd95960aa1b6064820152608490fd5b61295e90612514565b60406000858152600a6020528181208382526020528682822055868152600b602052205538612861565b848403612996575b50612859565b61299f90612514565b6000198101908111610f2957600090868252602090600b8252604091828420548281036129e7575b508884528383812055868452600a81528284209184525281205538612990565b878552600a8252838520838652825283852054888652600a8352848620828752835280858720558552600b825283852055386129c7565b60405162461bcd60e51b8152602060048201526024808201527f4552433732313a207472616e7366657220746f20746865207a65726f206164646044820152637265737360e01b6064820152608490fd5b3d15612a9a573d90612a8082611f5f565b91612a8e6040519384611f3d565b82523d6000602084013e565b606090565b91926000929190813b15612bdb57602091612af59185604051958680958194630a85bd0160e11b9b8c845233600485015260018060a01b0380951660248501526044840152608060648401526084830190611eb4565b0393165af190829082612b8c575b5050612b7e57612b11612a6f565b80519081612b795760405162461bcd60e51b815260206004820152603260248201527f4552433732313a207472616e7366657220746f206e6f6e20455243373231526560448201527131b2b4bb32b91034b6b83632b6b2b73a32b960711b6064820152608490fd5b602001fd5b6001600160e01b0319161490565b909192506020813d8211612bd3575b81612ba860209383611f3d565b81010312612bcf5751906001600160e01b031982168203612bcc5750903880612b03565b80fd5b5080fd5b3d9150612b9b565b5050505050600190565b600c54811015612c1c57600c6000527fdf6966c971051c3d54ec59162606531493a51404a002842f56009d7e5cf4a8c70190600090565b634e487b7160e01b600052603260045260246000fd5b8054821015612c1c5760005260206000200190600090565b908151811015612c1c570160200190565b91906001830160009082825280602052604082205415600014612cc357845494600160401b861015612caf5783612c9f610d1c886001604098999a01855584612c32565b9055549382526020522055600190565b634e487b7160e01b83526041600452602483fd5b50925050565b90600182019060009281845282602052604084205490811515600014612d9e57600019918083018181116123ce57825490848201918211612d8a57808203612d55575b50505080548015612d4157820191612d248383612c32565b909182549160031b1b191690555582526020526040812055600190565b634e487b7160e01b86526031600452602486fd5b612d75612d65610d1c9386612c32565b90549060031b1c92839286612c32565b90558652846020526040862055388080612d0c565b634e487b7160e01b88526011600452602488fd5b5050505090565b818110612db0575050565b60008155600101612da5565b600081815260066020526040902054612ddf906001600160a01b0316151561258b565b6000818152602090600e8252604090818120918051829380549482612e0387612005565b91828252888201936001988a8a821691826000146130a957505060011461306b575b50612e3292500383611f3d565b612e3a61203f565b90815192831561305f57805161303b57505050600086815260066020526040902054612e7191506001600160a01b0316151561258b565b612e7961203f565b8051909390156130255785869184977a184f03e93ff9f4daa797ed6e38ed64bf6a1f0100000000000000009081811015613016575b50506d04ee2d6d415b85acef810000000080841015613008575b50662386f26fc1000080841015612ff9575b506305f5e10080841015612fea575b5061271080841015612fdb575b506064831015612fcb575b600a80931015612fc2575b90816021818a0199612f35612f208c611f5f565b9b612f2d89519d8e611f3d565b808d52611f5f565b8b8b019890601f1901368a37508a0101905b612f8c575b5050505090612f8094611fcd949392519583612f718895518092888089019101611e91565b84019151809386840190611e91565b01038084520182611f3d565b600019019083906f181899199a1a9b1b9c1cb0b131b232b360811b8282061a835304918215612fbd57919082612f47565b612f4c565b80970196612f0c565b9691606460029104920196612f01565b60049198930492019638612ef6565b60089198930492019638612ee9565b60109198930492019638612eda565b879198930492019638612ec8565b94985088940492503880612eae565b509250925050519061303682611f21565b815290565b92975092611fcd969550612f80919450612f71889151988996888089019101611e91565b97505050505050505090565b915050855282878087208888915b858310613090575050612e32935082010138612e25565b8091929450548385890101520191018890888693613079565b60ff19168752612e3295151560051b8501019250389150612e259050565b156130ce57565b60405162461bcd60e51b815260206004820152601c60248201527f4552433732313a20746f6b656e20616c7265616479206d696e746564000000006044820152606490fdfea26469706673582212209eea7be8b56076649aa6cb75f7e2bd2399b6cd75e39836bcd8a79b50621c47e464736f6c634300081300332f8788117e7eff1d82e926ec794901d17c78024a50270940304540a733656f0d",
  "linkReferences": {},
  "deployedLinkReferences": {}
}