{
  "_format": "hh-sol-artifact-1",
  "contractName": "LaunchpadSale",
  "sourceName": "contracts/LaunchpadSale.sol",
  "abi": [
    {
      "inputs": [
        {
          "internalType": "contract LaunchpadERC721",
          "name": "_collection",
          "type": "address"
        }
      ],
      "stateMutability": "nonpayable",
      "type": "constructor"
    },
    {
      "inputs": [
        {
          "internalType": "uint24",
          "name": "count",
          "type": "uint24"
        }
      ],
      "name": "buy",
      "outputs": [],
      "stateMutability": "payable",
      "type": "function"
    },
    {
      "inputs": [],
      "name": "collection",
      "outputs": [
        {
          "internalType": "contract LaunchpadERC721",
          "name": "",
          "type": "address"
        }
      ],
      "stateMutability": "view",
      "type": "function"
    },
    {
      "inputs": [],
      "name": "endTime",
      "outputs": [
        {
          "internalType": "uint256",
          "name": "",
          "type": "uint256"
        }
      ],
      "stateMutability": "view",
      "type": "function"
    },
    {
      "inputs": [],
      "name": "maxSelling",
      "outputs": [
        {
          "internalType": "uint256",
          "name": "",
          "type": "uint256"
        }
      ],
      "stateMutability": "view",
      "type": "function"
    },
    {
      "inputs": [],
      "name": "remaining",
      "outputs": [
        {
          "internalType": "uint256",
          "name": "",
          "type": "uint256"
        }
      ],
      "stateMutability": "view",
      "type": "function"
    },
    {
      "inputs": [],
      "name": "soldOut",
      "outputs": [
        {
          "internalType": "uint256",
          "name": "",
          "type": "uint256"
        }
      ],
      "stateMutability": "view",
      "type": "function"
    },
    {
      "inputs": [],
      "name": "startTime",
      "outputs": [
        {
          "internalType": "uint256",
          "name": "",
          "type": "uint256"
        }
      ],
      "stateMutability": "view",
      "type": "function"
    }
  ],
  "bytecode": "0x60803461007457601f61051638819003918201601f19168301916001600160401b038311848410176100795780849260209460405283398101031261007457516001600160a01b0381169081900361007457600080546001600160a01b03191691909117905560405161048690816100908239f35b600080fd5b634e487b7160e01b600052604160045260246000fdfe60806040908082526004918236101561001757600080fd5b600091823560e01c9081633197cbb6146103985750806355234ec01461029d57806378e97925146102515780637de1e5361461022a578063893da6c91461019c5780639fe204b6146101035763c3dabf351461007257600080fd5b346100ff57816003193601126100ff578154815163d5abeb0160e01b81529360209185919082906001600160a01b03165afa9182156100f457916100bb575b6020925051908152f35b90506020823d82116100ec575b816100d560209383610418565b810103126100e75760209151906100b1565b600080fd5b3d91506100c8565b9051903d90823e3d90fd5b5080fd5b50829060203660031901126101985781359162ffffff83168093036101945783546001600160a01b0316928490843b156100ff57602484518096819363eaef4d8f60e01b83528683015234905af1801561018a5761015f578380f35b67ffffffffffffffff83116101775750528180808380f35b634e487b7160e01b845260419052602483fd5b82513d86823e3d90fd5b8380fd5b8280fd5b50829034610198578260031936011261019857825481516318160ddd60e01b81529260209184919082906001600160a01b03165afa9182156102205783926101e9575b6020838351908152f35b9091506020813d8211610218575b8161020460209383610418565b8101031261019857602092505190836101df565b3d91506101f7565b81513d85823e3d90fd5b50346100ff57816003193601126100ff57905490516001600160a01b039091168152602090f35b5082903461019857826003193601126101985782548151631cbaee2d60e01b81529260209184919082906001600160a01b03165afa9182156102205783926101e9576020838351908152f35b508290346101985782600319360112610198578254815163d5abeb0160e01b8152602094909390916001600160a01b031685858381845afa94851561035d579086918496610367575b5084516318160ddd60e01b815291908290849082905afa90811561035d578391610330575b50840393841161031d57505051908152f35b634e487b7160e01b825260119052602490fd5b90508581813d8311610356575b6103478183610418565b8101031261019857518661030b565b503d61033d565b84513d85823e3d90fd5b8281939297503d8311610391575b61037f8183610418565b810103126101985751938590826102e6565b503d610375565b9293905034610194578360031936011261019457835463ed338ff160e01b8452602091849182906001600160a01b03165afa9182156102205783926103e1576020838351908152f35b9091506020813d8211610410575b816103fc60209383610418565b8101031261019857602092505190386101df565b3d91506103ef565b90601f8019910116810190811067ffffffffffffffff82111761043a57604052565b634e487b7160e01b600052604160045260246000fdfea26469706673582212204175735e23f770eb18eda4d85c2376ec74bdb54edce3b93129a64eb9bff5eed164736f6c63430008130033",
  "linkReferences": {},
  "deployedLinkReferences": {}
}