{
  "_format": "hh-sol-artifact-1",
  "contractName": "LaunchpadERC721",
  "sourceName": "contracts/LaunchpadERC721.sol",
  "abi": [
    {
      "inputs": [
        {
          "internalType": "string",
          "name": "name_",
          "type": "string"
        },
        {
          "internalType": "string",
          "name": "symbol_",
          "type": "string"
        },
        {
          "internalType": "string",
          "name": "tokenURI_",
          "type": "string"
        },
        {
          "internalType": "uint256",
          "name": "_saleStartTime",
          "type": "uint256"
        },
        {
          "internalType": "uint256",
          "name": "_saleEndTime",
          "type": "uint256"
        },
        {
          "internalType": "uint256",
          "name": "_price",
          "type": "uint256"
        },
        {
          "internalType": "uint256",
          "name": "_maxSupply",
          "type": "uint256"
        }
      ],
      "stateMutability": "nonpayable",
      "type": "constructor"
    },
    {
      "anonymous": false,
      "inputs": [
        {
          "indexed": true,
          "internalType": "address",
          "name": "owner",
          "type": "address"
        },
        {
          "indexed": true,
          "internalType": "address",
          "name": "approved",
          "type": "address"
        },
        {
          "indexed": true,
          "internalType": "uint256",
          "name": "tokenId",
          "type": "uint256"
        }
      ],
      "name": "Approval",
      "type": "event"
    },
    {
      "anonymous": false,
      "inputs": [
        {
          "indexed": true,
          "internalType": "address",
          "name": "owner",
          "type": "address"
        },
        {
          "indexed": true,
          "internalType": "address",
          "name": "operator",
          "type": "address"
        },
        {
          "indexed": false,
          "internalType": "bool",
          "name": "approved",
          "type": "bool"
        }
      ],
      "name": "ApprovalForAll",
      "type": "event"
    },
    {
      "anonymous": false,
      "inputs": [
        {
          "indexed": true,
          "internalType": "address",
          "name": "previousOwner",
          "type": "address"
        },
        {
          "indexed": true,
          "internalType": "address",
          "name": "newOwner",
          "type": "address"
        }
      ],
      "name": "OwnershipTransferred",
      "type": "event"
    },
    {
      "anonymous": false,
      "inputs": [
        {
          "indexed": true,
          "internalType": "address",
          "name": "from",
          "type": "address"
        },
        {
          "indexed": true,
          "internalType": "address",
          "name": "to",
          "type": "address"
        },
        {
          "indexed": true,
          "internalType": "uint256",
          "name": "tokenId",
          "type": "uint256"
        }
      ],
      "name": "Transfer",
      "type": "event"
    },
    {
      "inputs": [
        {
          "internalType": "address",
          "name": "to",
          "type": "address"
        },
        {
          "internalType": "uint256",
          "name": "tokenId",
          "type": "uint256"
        }
      ],
      "name": "approve",
      "outputs": [],
      "stateMutability": "nonpayable",
      "type": "function"
    },
    {
      "inputs": [
        {
          "internalType": "address",
          "name": "owner",
          "type": "address"
        }
      ],
      "name": "balanceOf",
      "outputs": [
        {
          "internalType": "uint256",
          "name": "",
          "type": "uint256"
        }
      ],
      "stateMutability": "view",
      "type": "function"
    },
    {
      "inputs": [
        {
          "internalType": "uint256",
          "name": "tokenId",
          "type": "uint256"
        }
      ],
      "name": "getApproved",
      "outputs": [
        {
          "internalType": "address",
          "name": "",
          "type": "address"
        }
      ],
      "stateMutability": "view",
      "type": "function"
    },
    {
      "inputs": [
        {
          "internalType": "address",
          "name": "owner",
          "type": "address"
        },
        {
          "internalType": "address",
          "name": "operator",
          "type": "address"
        }
      ],
      "name": "isApprovedForAll",
      "outputs": [
        {
          "internalType": "bool",
          "name": "",
          "type": "bool"
        }
      ],
      "stateMutability": "view",
      "type": "function"
    },
    {
      "inputs": [],
      "name": "maxSupply",
      "outputs": [
        {
          "internalType": "uint256",
          "name": "",
          "type": "uint256"
        }
      ],
      "stateMutability": "view",
      "type": "function"
    },
    {
      "inputs": [
        {
          "internalType": "uint24",
          "name": "count",
          "type": "uint24"
        }
      ],
      "name": "mint",
      "outputs": [],
      "stateMutability": "payable",
      "type": "function"
    },
    {
      "inputs": [],
      "name": "name",
      "outputs": [
        {
          "internalType": "string",
          "name": "",
          "type": "string"
        }
      ],
      "stateMutability": "view",
      "type": "function"
    },
    {
      "inputs": [],
      "name": "owner",
      "outputs": [
        {
          "internalType": "address",
          "name": "",
          "type": "address"
        }
      ],
      "stateMutability": "view",
      "type": "function"
    },
    {
      "inputs": [
        {
          "internalType": "uint256",
          "name": "tokenId",
          "type": "uint256"
        }
      ],
      "name": "ownerOf",
      "outputs": [
        {
          "internalType": "address",
          "name": "",
          "type": "address"
        }
      ],
      "stateMutability": "view",
      "type": "function"
    },
    {
      "inputs": [],
      "name": "price",
      "outputs": [
        {
          "internalType": "uint256",
          "name": "",
          "type": "uint256"
        }
      ],
      "stateMutability": "view",
      "type": "function"
    },
    {
      "inputs": [],
      "name": "renounceOwnership",
      "outputs": [],
      "stateMutability": "nonpayable",
      "type": "function"
    },
    {
      "inputs": [
        {
          "internalType": "address",
          "name": "from",
          "type": "address"
        },
        {
          "internalType": "address",
          "name": "to",
          "type": "address"
        },
        {
          "internalType": "uint256",
          "name": "tokenId",
          "type": "uint256"
        }
      ],
      "name": "safeTransferFrom",
      "outputs": [],
      "stateMutability": "nonpayable",
      "type": "function"
    },
    {
      "inputs": [
        {
          "internalType": "address",
          "name": "from",
          "type": "address"
        },
        {
          "internalType": "address",
          "name": "to",
          "type": "address"
        },
        {
          "internalType": "uint256",
          "name": "tokenId",
          "type": "uint256"
        },
        {
          "internalType": "bytes",
          "name": "data",
          "type": "bytes"
        }
      ],
      "name": "safeTransferFrom",
      "outputs": [],
      "stateMutability": "nonpayable",
      "type": "function"
    },
    {
      "inputs": [],
      "name": "saleEndTime",
      "outputs": [
        {
          "internalType": "uint256",
          "name": "",
          "type": "uint256"
        }
      ],
      "stateMutability": "view",
      "type": "function"
    },
    {
      "inputs": [],
      "name": "saleStartTime",
      "outputs": [
        {
          "internalType": "uint256",
          "name": "",
          "type": "uint256"
        }
      ],
      "stateMutability": "view",
      "type": "function"
    },
    {
      "inputs": [
        {
          "internalType": "address",
          "name": "operator",
          "type": "address"
        },
        {
          "internalType": "bool",
          "name": "approved",
          "type": "bool"
        }
      ],
      "name": "setApprovalForAll",
      "outputs": [],
      "stateMutability": "nonpayable",
      "type": "function"
    },
    {
      "inputs": [],
      "name": "symbol",
      "outputs": [
        {
          "internalType": "string",
          "name": "",
          "type": "string"
        }
      ],
      "stateMutability": "view",
      "type": "function"
    },
    {
      "inputs": [],
      "name": "tokenTracker",
      "outputs": [
        {
          "internalType": "uint256",
          "name": "",
          "type": "uint256"
        }
      ],
      "stateMutability": "view",
      "type": "function"
    },
    {
      "inputs": [
        {
          "internalType": "uint256",
          "name": "tokenId",
          "type": "uint256"
        }
      ],
      "name": "tokenURI",
      "outputs": [
        {
          "internalType": "string",
          "name": "",
          "type": "string"
        }
      ],
      "stateMutability": "view",
      "type": "function"
    },
    {
      "inputs": [],
      "name": "totalSupply",
      "outputs": [
        {
          "internalType": "uint256",
          "name": "",
          "type": "uint256"
        }
      ],
      "stateMutability": "view",
      "type": "function"
    },
    {
      "inputs": [
        {
          "internalType": "address",
          "name": "from",
          "type": "address"
        },
        {
          "internalType": "address",
          "name": "to",
          "type": "address"
        },
        {
          "internalType": "uint256",
          "name": "tokenId",
          "type": "uint256"
        }
      ],
      "name": "transferFrom",
      "outputs": [],
      "stateMutability": "nonpayable",
      "type": "function"
    },
    {
      "inputs": [
        {
          "internalType": "address",
          "name": "newOwner",
          "type": "address"
        }
      ],
      "name": "transferOwnership",
      "outputs": [],
      "stateMutability": "nonpayable",
      "type": "function"
    },
    {
      "inputs": [
        {
          "internalType": "address",
          "name": "to",
          "type": "address"
        }
      ],
      "name": "withdraw",
      "outputs": [],
      "stateMutability": "nonpayable",
      "type": "function"
    }
  ],
  "bytecode": "0x608060405234620004dd57620017ae803803806200001d81620004e2565b92833981019060e081830312620004dd5780516001600160401b039290838111620004dd5781620000509184016200051e565b92602080840151828111620004dd57836200006d9186016200051e565b92604085015190838211620004dd57620000899186016200051e565b9060608501519260808601519460c060a08801519701519760009485543360018060a01b03198216178755339060018060a01b03167f8be0079c531659141344cd1fd0a4f28419497f9722a3daafe3b4186f6b6457e08880a3815192848411620004c9576001938454938585811c95168015620004be575b88861014620003c8578190601f958681116200046b575b50889086831160011462000407578a92620003fb575b5050600019600383901b1c191690851b1784555b805190858211620003e7576002548581811c91168015620003dc575b88821014620003c85790818584931162000374575b5087908583116001146200030e57899262000302575b5050600019600383901b1c191690841b176002555b8051938411620002ee5760039586548481811c91168015620002e3575b87821014620002cf5783811162000287575b50859285116001146200022157939450849291908362000215575b50501b9160001990841b1c19161790555b60075560085560045560065560405161121d9081620005918239f35b015192503880620001e8565b86815285812093958591601f198316915b888383106200026c575050501062000253575b505050811b019055620001f9565b015160001983861b60f8161c1916905538808062000245565b85870151885590960195948501948793509081019062000232565b8782528682208480880160051c820192898910620002c5575b0160051c019085905b828110620002b9575050620001cd565b838155018590620002a9565b92508192620002a0565b634e487b7160e01b82526022600452602482fd5b90607f1690620001bb565b634e487b7160e01b86526041600452602486fd5b01519050388062000189565b60028a52888a208794509190601f1984168b5b8b8282106200035d575050841162000343575b505050811b016002556200019e565b015160001960f88460031b161c1916905538808062000334565b8385015186558a9790950194938401930162000321565b909150600289528789208580850160051c8201928a8610620003be575b918891869594930160051c01915b828110620003af57505062000173565b8b81558594508891016200039f565b9250819262000391565b634e487b7160e01b89526022600452602489fd5b90607f16906200015e565b634e487b7160e01b88526041600452602488fd5b0151905038806200012e565b878b52898b208894509190601f1984168c5b8c8282106200045457505084116200043a575b505050811b01845562000142565b015160001960f88460031b161c191690553880806200042c565b8385015186558b9790950194938401930162000419565b909150868a52888a208680850160051c8201928b8610620004b4575b918991869594930160051c01915b828110620004a557505062000118565b8c815585945089910162000495565b9250819262000487565b94607f169462000101565b634e487b7160e01b87526041600452602487fd5b600080fd5b6040519190601f01601f191682016001600160401b038111838210176200050857604052565b634e487b7160e01b600052604160045260246000fd5b919080601f84011215620004dd5782516001600160401b038111620005085760209062000554601f8201601f19168301620004e2565b92818452828287010111620004dd5760005b8181106200057c57508260009394955001015290565b85810183015184820184015282016200056656fe6080604081815260048036101561001557600080fd5b600092833560e01c90816306fdde0314610c7c57508063081812fc14610c5c578063095ea7b314610aec57806318160ddd146105075780631cbaee2d14610acd57806323b872dd14610aad57806342842e0e14610a5257806351cff8d914610a025780636352211e146109d157806370a082311461093b578063715018a6146108de5780638da5cb5b146108b657806395d89b41146107f8578063a035b1fe146107db578063a22cb4651461070c578063b88d4fde1461064d578063c87b56dd14610526578063cf62e9ca14610507578063d5abeb01146104e8578063e985e9c51461049a578063eaef4d8f14610208578063ed338ff1146101e55763f2fde38b1461012057600080fd5b346101e15760203660031901126101e157610139610d7f565b90610142610e1d565b6001600160a01b0391821692831561018f57505082546001600160a01b0319811683178455167f8be0079c531659141344cd1fd0a4f28419497f9722a3daafe3b4186f6b6457e08380a380f35b906020608492519162461bcd60e51b8352820152602660248201527f4f776e61626c653a206e6577206f776e657220697320746865207a65726f206160448201526564647265737360d01b6064820152fd5b8280fd5b5050346102045781600319360112610204576020906008549051908152f35b5080fd5b508290602092836003193601126101e15781359362ffffff85168095036104965784156104665761023a835486610ee7565b341115610430576006546005908154906102548883610f10565b116103f75790953315915b61026a828954610f10565b81101561037657826103355760008181526009602052604090205461029b906001600160a01b031615155b1561102b565b6000818152600960205260409020546102be906001600160a01b03161515610295565b33808852600a8552858820805460010190558188526009855285882080546001600160a01b031916821790558190887fddf252ad1be2c89b69c2b068fc378daa952ba7f163c4a11628f55a4df523b3ef8180a460001981146103225760010161025f565b634e487b7160e01b875260118652602487fd5b606486858088519262461bcd60e51b845283015260248201527f4552433732313a206d696e7420746f20746865207a65726f20616464726573736044820152fd5b868587848b610386828254610f10565b905581546103948183610ee7565b341161039e578480f35b6103a791610ee7565b803403913483116103e45750838080938193829034146103db575b3390f1156103d1578080808480f35b51903d90823e3d90fd5b506108fc6103c2565b634e487b7160e01b855260119052602484fd5b835162461bcd60e51b81528086018490526013602482015272696e73756666696369656e7420737570706c7960681b6044820152606490fd5b905162461bcd60e51b8152918201526012602482015271696e73756666696369656e742076616c756560701b6044820152606490fd5b905162461bcd60e51b815291820152600c60248201526b125d985b1a590818dbdd5b9d60a21b6044820152606490fd5b8380fd5b50503461020457806003193601126102045760ff816020936104ba610d7f565b6104c2610d9a565b6001600160a01b039182168352600c875283832091168252855220549151911615158152f35b5050346102045781600319360112610204576020906006549051908152f35b5050346102045781600319360112610204576020906005549051908152f35b5090346101e15760208060031936011261049657823560009081526009602052604090205461055f906001600160a01b03161515610e75565b815192846003549060019180831c93838216908115610643575b8686108214610630575084885290811561060e57506001146105b5575b6105b186866105a7828b0383610de5565b5191829182610d36565b0390f35b929550600383527fc2575a0e9e593c00f959f8c92f12db2869c3395a3b0502d05e2516446f71f85b5b8284106105fb57505050826105b1946105a7928201019438610596565b80548685018801529286019281016105de565b60ff191687860152505050151560051b83010192506105a7826105b138610596565b634e487b7160e01b845260229052602483fd5b94607f1694610579565b5090346101e15760803660031901126101e157610668610d7f565b610670610d9a565b90604435926064359067ffffffffffffffff95868311610708573660238401121561070857828101359687116106f5575051948691906106ba601f8201601f191660200188610de5565b80875236602482840101116101e1576106f29681602460209401848301370101526106ed6106e88433610fbd565b610f5b565b6110d1565b80f35b634e487b7160e01b885260419052602487fd5b8780fd5b5090346101e157806003193601126101e157610726610d7f565b90602435918215158093036107d7576001600160a01b0316923384146107955750338452600c60205280842083855260205280842060ff1981541660ff8416179055519081527f17307eab39ab6107e8899845ad3d59bd9653f200f220920489ca2b5937696c3160203392a380f35b6020606492519162461bcd60e51b8352820152601960248201527f4552433732313a20617070726f766520746f2063616c6c6572000000000000006044820152fd5b8480fd5b50346101e157826003193601126101e15760209250549051908152f35b5090346101e157826003193601126101e157805191836002549060019082821c9282811680156108ac575b6020958686108214610630575084885290811561060e5750600114610853576105b186866105a7828b0383610de5565b929550600283527f405787fa12a823e0f2b7631cc41b3ba8828b3321ca811111fa75cd3aa3bb5ace5b82841061089957505050826105b1946105a7928201019438610596565b805486850188015292860192810161087c565b93607f1693610823565b505034610204578160031936011261020457905490516001600160a01b039091168152602090f35b83346109385780600319360112610938576108f7610e1d565b80546001600160a01b03198116825581906001600160a01b03167f8be0079c531659141344cd1fd0a4f28419497f9722a3daafe3b4186f6b6457e08280a380f35b80fd5b50829034610204576020366003190112610204576001600160a01b0361095f610d7f565b1690811561097c576020848085858152600a845220549051908152f35b608490602085519162461bcd60e51b8352820152602960248201527f4552433732313a2061646472657373207a65726f206973206e6f7420612076616044820152683634b21037bbb732b960b91b6064820152fd5b50913461093857602036600319011261093857506109f160209235610ec1565b90516001600160a01b039091168152f35b5050346102045760203660031901126102045781808080610a21610d7f565b610a29610e1d565b479082908215610a48575b6001600160a01b031690f1156103d1575080f35b6108fc9150610a34565b5091903461020457610a6336610db0565b92809291925190602082019082821067ffffffffffffffff831117610a9a57528490529293506106f2926106ed6106e88433610fbd565b634e487b7160e01b875260418852602487fd5b8334610938576106f2610abf36610db0565b916106ed6106e88433610fbd565b5050346102045781600319360112610204576020906007549051908152f35b50346101e157816003193601126101e157610b05610d7f565b6024359290916001600160a01b0391908280610b2087610ec1565b16941693808514610c0f57803314908115610bf0575b5015610b885750838552600b602052842080546001600160a01b03191683179055610b6083610ec1565b167f8c5be1e5ebec7d5bd14f71427d1e84f3dd0314c0f7b2291e5b200ac8c7c3b9258480a480f35b6020608492519162461bcd60e51b8352820152603d60248201527f4552433732313a20617070726f76652063616c6c6572206973206e6f7420746f60448201527f6b656e206f776e6572206f7220617070726f76656420666f7220616c6c0000006064820152fd5b90508652600c60205281862033875260205260ff828720541638610b36565b506020608492519162461bcd60e51b8352820152602160248201527f4552433732313a20617070726f76616c20746f2063757272656e74206f776e656044820152603960f91b6064820152fd5b50913461093857602036600319011261093857506109f160209235610f1d565b929190503461049657836003193601126104965783600180549182821c928281168015610d2c575b6020958686108214610630575084885290811561060e5750600114610cd4576105b186866105a7828b0383610de5565b9295508083527fb10e2d527612073b26eecdfd717e6a320cf44b4afac2b0732d9fcbe2b7fa0cf65b828410610d1957505050826105b1946105a7928201019438610596565b8054868501880152928601928101610cfc565b93607f1693610ca4565b6020808252825181830181905290939260005b828110610d6b57505060409293506000838284010152601f8019910116010190565b818101860151848201604001528501610d49565b600435906001600160a01b0382168203610d9557565b600080fd5b602435906001600160a01b0382168203610d9557565b6060906003190112610d95576001600160a01b03906004358281168103610d9557916024359081168103610d95579060443590565b90601f8019910116810190811067ffffffffffffffff821117610e0757604052565b634e487b7160e01b600052604160045260246000fd5b6000546001600160a01b03163303610e3157565b606460405162461bcd60e51b815260206004820152602060248201527f4f776e61626c653a2063616c6c6572206973206e6f7420746865206f776e65726044820152fd5b15610e7c57565b60405162461bcd60e51b815260206004820152601860248201527f4552433732313a20696e76616c696420746f6b656e20494400000000000000006044820152606490fd5b6000908152600960205260409020546001600160a01b0316610ee4811515610e75565b90565b81810292918115918404141715610efa57565b634e487b7160e01b600052601160045260246000fd5b91908201809211610efa57565b600081815260096020526040902054610f40906001600160a01b03161515610e75565b6000908152600b60205260409020546001600160a01b031690565b15610f6257565b60405162461bcd60e51b815260206004820152602d60248201527f4552433732313a2063616c6c6572206973206e6f7420746f6b656e206f776e6560448201526c1c881bdc88185c1c1c9bdd9959609a1b6064820152608490fd5b906001600160a01b038080610fd184610ec1565b16931691838314938415611004575b508315610fee575b50505090565b610ffa91929350610f1d565b1614388080610fe8565b909350600052600c60205260406000208260005260205260ff604060002054169238610fe0565b1561103257565b60405162461bcd60e51b815260206004820152601c60248201527f4552433732313a20746f6b656e20616c7265616479206d696e746564000000006044820152606490fd5b1561107e57565b60405162461bcd60e51b815260206004820152602560248201527f4552433732313a207472616e736665722066726f6d20696e636f72726563742060448201526437bbb732b960d91b6064820152608490fd5b906110f9916110df84610ec1565b6001600160a01b0393918416928492909183168414611077565b1691821561119657816111169161110f86610ec1565b1614611077565b7fddf252ad1be2c89b69c2b068fc378daa952ba7f163c4a11628f55a4df523b3ef6000848152600b602052604081206bffffffffffffffffffffffff60a01b90818154169055838252600a6020526040822060001981540190558482526040822060018154019055858252600960205284604083209182541617905580a4565b60405162461bcd60e51b8152602060048201526024808201527f4552433732313a207472616e7366657220746f20746865207a65726f206164646044820152637265737360e01b6064820152608490fdfea2646970667358221220b95d9d975044b8db824c9d5e99fbfe5b8a46677143ecc1bb4066b00be5e38d2f64736f6c63430008130033",
  "linkReferences": {},
  "deployedLinkReferences": {}
}